{"contracts/PredictionMarket.sol":{"PredictionMarket":{"abi":[{"anonymous":false,"inputs":[{"indexed":true,"internalType":"uint256","name":"id","type":"uint256"},{"indexed":false,"internalType":"string","name":"homeTeam","type":"string"},{"indexed":false,"internalType":"string","name":"awayTeam","type":"string"},{"indexed":false,"internalType":"uint8","name":"predictedWinner","type":"uint8"},{"indexed":false,"internalType":"uint8","name":"confidence","type":"uint8"},{"indexed":false,"internalType":"uint256","name":"timestamp","type":"uint256"}],"name":"PredictionMade","type":"event"},{"anonymous":false,"inputs":[{"indexed":true,"internalType":"uint256","name":"id","type":"uint256"},{"indexed":false,"internalType":"uint8","name":"actualWinner","type":"uint8"},{"indexed":false,"internalType":"bool","name":"correct","type":"bool"}],"name":"PredictionResolved","type":"event"},{"inputs":[],"name":"correctPredictions","outputs":[{"internalType":"uint256","name":"","type":"uint256"}],"stateMutability":"view","type":"function"},{"inputs":[],"name":"getAccuracy","outputs":[{"internalType":"uint256","name":"","type":"uint256"}],"stateMutability":"view","type":"function"},{"inputs":[],"name":"getAllPredictions","outputs":[{"components":[{"internalType":"uint256","name":"id","type":"uint256"},{"internalType":"string","name":"homeTeam","type":"string"},{"internalType":"string","name":"awayTeam","type":"string"},{"internalType":"uint8","name":"predictedWinner","type":"uint8"},{"internalType":"uint8","name":"confidence","type":"uint8"},{"internalType":"uint256","name":"timestamp","type":"uint256"},{"internalType":"bool","name":"resolved","type":"bool"},{"internalType":"uint8","name":"actualWinner","type":"uint8"}],"internalType":"struct PredictionMarket.Prediction[]","name":"","type":"tuple[]"}],"stateMutability":"view","type":"function"},{"inputs":[{"internalType":"uint256","name":"_id","type":"uint256"}],"name":"getPrediction","outputs":[{"components":[{"internalType":"uint256","name":"id","type":"uint256"},{"internalType":"string","name":"homeTeam","type":"string"},{"internalType":"string","name":"awayTeam","type":"string"},{"internalType":"uint8","name":"predictedWinner","type":"uint8"},{"internalType":"uint8","name":"confidence","type":"uint8"},{"internalType":"uint256","name":"timestamp","type":"uint256"},{"internalType":"bool","name":"resolved","type":"bool"},{"internalType":"uint8","name":"actualWinner","type":"uint8"}],"internalType":"struct PredictionMarket.Prediction","name":"","type":"tuple"}],"stateMutability":"view","type":"function"},{"inputs":[],"name":"predictionCount","outputs":[{"internalType":"uint256","name":"","type":"uint256"}],"stateMutability":"view","type":"function"},{"inputs":[{"internalType":"uint256","name":"","type":"uint256"}],"name":"predictions","outputs":[{"internalType":"uint256","name":"id","type":"uint256"},{"internalType":"string","name":"homeTeam","type":"string"},{"internalType":"string","name":"awayTeam","type":"string"},{"internalType":"uint8","name":"predictedWinner","type":"uint8"},{"internalType":"uint8","name":"confidence","type":"uint8"},{"internalType":"uint256","name":"timestamp","type":"uint256"},{"internalType":"bool","name":"resolved","type":"bool"},{"internalType":"uint8","name":"actualWinner","type":"uint8"}],"stateMutability":"view","type":"function"},{"inputs":[{"internalType":"string","name":"_home","type":"string"},{"internalType":"string","name":"_away","type":"string"},{"internalType":"uint8","name":"_winner","type":"uint8"},{"internalType":"uint8","name":"_confidence","type":"uint8"}],"name":"recordPrediction","outputs":[{"internalType":"uint256","name":"","type":"uint256"}],"stateMutability":"nonpayable","type":"function"},{"inputs":[{"internalType":"uint256","name":"_id","type":"uint256"},{"internalType":"uint8","name":"_actualWinner","type":"uint8"}],"name":"resolvePrediction","outputs":[],"stateMutability":"nonpayable","type":"function"}],"evm":{"bytecode":{"linkReferences":{},"object":"608060405234801561001057600080fd5b50611a4f806100206000396000f3fe608060405234801561001057600080fd5b50600436106100875760003560e01c806392abadc51161005b57806392abadc51461012d578063bc1c72851461014b578063eca5266114610169578063fe83bece1461018757610087565b80624fbbb01461008c5780635647b271146100c35780636aaea6dc146100f35780638e0596a21461010f575b600080fd5b6100a660048036038101906100a19190610cb0565b6101b7565b6040516100ba989796959493929190610db3565b60405180910390f35b6100dd60048036038101906100d89190610fa0565b610343565b6040516100ea919061103f565b60405180910390f35b61010d6004803603810190610108919061105a565b610578565b005b61011761074f565b604051610124919061103f565b60405180910390f35b610135610755565b604051610142919061103f565b60405180910390f35b61015361078b565b604051610160919061128a565b60405180910390f35b6101716109f5565b60405161017e919061103f565b60405180910390f35b6101a1600480360381019061019c9190610cb0565b6109fb565b6040516101ae9190611363565b60405180910390f35b60006020528060005260406000206000915090508060000154908060010180546101e0906113b4565b80601f016020809104026020016040519081016040528092919081815260200182805461020c906113b4565b80156102595780601f1061022e57610100808354040283529160200191610259565b820191906000526020600020905b81548152906001019060200180831161023c57829003601f168201915b50505050509080600201805461026e906113b4565b80601f016020809104026020016040519081016040528092919081815260200182805461029a906113b4565b80156102e75780601f106102bc576101008083540402835291602001916102e7565b820191906000526020600020905b8154815290600101906020018083116102ca57829003601f168201915b5050505050908060030160009054906101000a900460ff16908060030160019054906101000a900460ff16908060040154908060050160009054906101000a900460ff16908060050160019054906101000a900460ff16905088565b600060028360ff16111561038c576040517f08c379a000000000000000000000000000000000000000000000000000000000815260040161038390611431565b60405180910390fd5b60328260ff16101580156103a4575060638260ff1611155b6103e3576040517f08c379a00000000000000000000000000000000000000000000000000000000081526004016103da9061149d565b60405180910390fd5b60405180610100016040528060015481526020018681526020018581526020018460ff1681526020018360ff168152602001428152602001600015158152602001600060ff16815250600080600154815260200190815260200160002060008201518160000155602082015181600101908161045f9190611669565b5060408201518160020190816104759190611669565b5060608201518160030160006101000a81548160ff021916908360ff16021790555060808201518160030160016101000a81548160ff021916908360ff16021790555060a0820151816004015560c08201518160050160006101000a81548160ff02191690831515021790555060e08201518160050160016101000a81548160ff021916908360ff1602179055509050506001547f8ae4e39201c79e4dbfef642bcba5f20b0e10a57b39bf8f7e361e278595e2d54a868686864260405161054095949392919061173b565b60405180910390a26001600081548092919061055b906117cb565b91905055506001805461056e9190611813565b9050949350505050565b60015482106105bc576040517f08c379a00000000000000000000000000000000000000000000000000000000081526004016105b390611893565b60405180910390fd5b60008083815260200190815260200160002060050160009054906101000a900460ff161561061f576040517f08c379a0000000000000000000000000000000000000000000000000000000008152600401610616906118ff565b60405180910390fd5b60028160ff161115610666576040517f08c379a000000000000000000000000000000000000000000000000000000000815260040161065d90611431565b60405180910390fd5b600160008084815260200190815260200160002060050160006101000a81548160ff0219169083151502179055508060008084815260200190815260200160002060050160016101000a81548160ff021916908360ff16021790555060008160ff1660008085815260200190815260200160002060030160009054906101000a900460ff1660ff161490508015610710576002600081548092919061070a906117cb565b91905055505b827f48c173ffa2262e5d5f066f7318da9e019de4cb75330c5a89cb60342f51a9f3e2838360405161074292919061191f565b60405180910390a2505050565b60015481565b600080600154036107695760009050610788565b600154606460025461077b9190611948565b61078591906119b9565b90505b90565b6060600060015467ffffffffffffffff8111156107ab576107aa610e49565b5b6040519080825280602002602001820160405280156107e457816020015b6107d1610c16565b8152602001906001900390816107c95790505b50905060005b6001548110156109ed57600080828152602001908152602001600020604051806101000160405290816000820154815260200160018201805461082c906113b4565b80601f0160208091040260200160405190810160405280929190818152602001828054610858906113b4565b80156108a55780601f1061087a576101008083540402835291602001916108a5565b820191906000526020600020905b81548152906001019060200180831161088857829003601f168201915b505050505081526020016002820180546108be906113b4565b80601f01602080910402602001604051908101604052809291908181526020018280546108ea906113b4565b80156109375780601f1061090c57610100808354040283529160200191610937565b820191906000526020600020905b81548152906001019060200180831161091a57829003601f168201915b505050505081526020016003820160009054906101000a900460ff1660ff1660ff1681526020016003820160019054906101000a900460ff1660ff1660ff168152602001600482015481526020016005820160009054906101000a900460ff161515151581526020016005820160019054906101000a900460ff1660ff1660ff16815250508282815181106109cf576109ce6119ea565b5b602002602001018190525080806109e5906117cb565b9150506107ea565b508091505090565b60025481565b610a03610c16565b6001548210610a47576040517f08c379a0000000000000000000000000000000000000000000000000000000008152600401610a3e90611893565b60405180910390fd5b6000808381526020019081526020016000206040518061010001604052908160008201548152602001600182018054610a7f906113b4565b80601f0160208091040260200160405190810160405280929190818152602001828054610aab906113b4565b8015610af85780601f10610acd57610100808354040283529160200191610af8565b820191906000526020600020905b815481529060010190602001808311610adb57829003601f168201915b50505050508152602001600282018054610b11906113b4565b80601f0160208091040260200160405190810160405280929190818152602001828054610b3d906113b4565b8015610b8a5780601f10610b5f57610100808354040283529160200191610b8a565b820191906000526020600020905b815481529060010190602001808311610b6d57829003601f168201915b505050505081526020016003820160009054906101000a900460ff1660ff1660ff1681526020016003820160019054906101000a900460ff1660ff1660ff168152602001600482015481526020016005820160009054906101000a900460ff161515151581526020016005820160019054906101000a900460ff1660ff1660ff16815250509050919050565b604051806101000160405280600081526020016060815260200160608152602001600060ff168152602001600060ff16815260200160008152602001600015158152602001600060ff1681525090565b6000604051905090565b600080fd5b600080fd5b6000819050919050565b610c8d81610c7a565b8114610c9857600080fd5b50565b600081359050610caa81610c84565b92915050565b600060208284031215610cc657610cc5610c70565b5b6000610cd484828501610c9b565b91505092915050565b610ce681610c7a565b82525050565b600081519050919050565b600082825260208201905092915050565b60005b83811015610d26578082015181840152602081019050610d0b565b60008484015250505050565b6000601f19601f8301169050919050565b6000610d4e82610cec565b610d588185610cf7565b9350610d68818560208601610d08565b610d7181610d32565b840191505092915050565b600060ff82169050919050565b610d9281610d7c565b82525050565b60008115159050919050565b610dad81610d98565b82525050565b600061010082019050610dc9600083018b610cdd565b8181036020830152610ddb818a610d43565b90508181036040830152610def8189610d43565b9050610dfe6060830188610d89565b610e0b6080830187610d89565b610e1860a0830186610cdd565b610e2560c0830185610da4565b610e3260e0830184610d89565b9998505050505050505050565b600080fd5b600080fd5b7f4e487b7100000000000000000000000000000000000000000000000000000000600052604160045260246000fd5b610e8182610d32565b810181811067ffffffffffffffff82111715610ea057610e9f610e49565b5b80604052505050565b6000610eb3610c66565b9050610ebf8282610e78565b919050565b600067ffffffffffffffff821115610edf57610ede610e49565b5b610ee882610d32565b9050602081019050919050565b82818337600083830152505050565b6000610f17610f1284610ec4565b610ea9565b905082815260208101848484011115610f3357610f32610e44565b5b610f3e848285610ef5565b509392505050565b600082601f830112610f5b57610f5a610e3f565b5b8135610f6b848260208601610f04565b91505092915050565b610f7d81610d7c565b8114610f8857600080fd5b50565b600081359050610f9a81610f74565b92915050565b60008060008060808587031215610fba57610fb9610c70565b5b600085013567ffffffffffffffff811115610fd857610fd7610c75565b5b610fe487828801610f46565b945050602085013567ffffffffffffffff81111561100557611004610c75565b5b61101187828801610f46565b935050604061102287828801610f8b565b925050606061103387828801610f8b565b91505092959194509250565b60006020820190506110546000830184610cdd565b92915050565b6000806040838503121561107157611070610c70565b5b600061107f85828601610c9b565b925050602061109085828601610f8b565b9150509250929050565b600081519050919050565b600082825260208201905092915050565b6000819050602082019050919050565b6110cf81610c7a565b82525050565b600082825260208201905092915050565b60006110f182610cec565b6110fb81856110d5565b935061110b818560208601610d08565b61111481610d32565b840191505092915050565b61112881610d7c565b82525050565b61113781610d98565b82525050565b60006101008301600083015161115660008601826110c6565b506020830151848203602086015261116e82826110e6565b9150506040830151848203604086015261118882826110e6565b915050606083015161119d606086018261111f565b5060808301516111b0608086018261111f565b5060a08301516111c360a08601826110c6565b5060c08301516111d660c086018261112e565b5060e08301516111e960e086018261111f565b508091505092915050565b6000611200838361113d565b905092915050565b6000602082019050919050565b60006112208261109a565b61122a81856110a5565b93508360208202850161123c856110b6565b8060005b85811015611278578484038952815161125985826111f4565b945061126483611208565b925060208a01995050600181019050611240565b50829750879550505050505092915050565b600060208201905081810360008301526112a48184611215565b905092915050565b6000610100830160008301516112c560008601826110c6565b50602083015184820360208601526112dd82826110e6565b915050604083015184820360408601526112f782826110e6565b915050606083015161130c606086018261111f565b50608083015161131f608086018261111f565b5060a083015161133260a08601826110c6565b5060c083015161134560c086018261112e565b5060e083015161135860e086018261111f565b508091505092915050565b6000602082019050818103600083015261137d81846112ac565b905092915050565b7f4e487b7100000000000000000000000000000000000000000000000000000000600052602260045260246000fd5b600060028204905060018216806113cc57607f821691505b6020821081036113df576113de611385565b5b50919050565b7f496e76616c69642077696e6e6572000000000000000000000000000000000000600082015250565b600061141b600e83610cf7565b9150611426826113e5565b602082019050919050565b6000602082019050818103600083015261144a8161140e565b9050919050565b7f436f6e666964656e6365206d7573742062652035302d39392500000000000000600082015250565b6000611487601983610cf7565b915061149282611451565b602082019050919050565b600060208201905081810360008301526114b68161147a565b9050919050565b60008190508160005260206000209050919050565b60006020601f8301049050919050565b600082821b905092915050565b60006008830261151f7fffffffffffffffffffffffffffffffffffffffffffffffffffffffffffffffff826114e2565b61152986836114e2565b95508019841693508086168417925050509392505050565b6000819050919050565b600061156661156161155c84610c7a565b611541565b610c7a565b9050919050565b6000819050919050565b6115808361154b565b61159461158c8261156d565b8484546114ef565b825550505050565b600090565b6115a961159c565b6115b4818484611577565b505050565b5b818110156115d8576115cd6000826115a1565b6001810190506115ba565b5050565b601f82111561161d576115ee816114bd565b6115f7846114d2565b81016020851015611606578190505b61161a611612856114d2565b8301826115b9565b50505b505050565b600082821c905092915050565b600061164060001984600802611622565b1980831691505092915050565b6000611659838361162f565b9150826002028217905092915050565b61167282610cec565b67ffffffffffffffff81111561168b5761168a610e49565b5b61169582546113b4565b6116a08282856115dc565b600060209050601f8311600181146116d357600084156116c1578287015190505b6116cb858261164d565b865550611733565b601f1984166116e1866114bd565b60005b82811015611709578489015182556001820191506020850194506020810190506116e4565b868310156117265784890151611722601f89168261162f565b8355505b6001600288020188555050505b505050505050565b600060a08201905081810360008301526117558188610d43565b905081810360208301526117698187610d43565b90506117786040830186610d89565b6117856060830185610d89565b6117926080830184610cdd565b9695505050505050565b7f4e487b7100000000000000000000000000000000000000000000000000000000600052601160045260246000fd5b60006117d682610c7a565b91507fffffffffffffffffffffffffffffffffffffffffffffffffffffffffffffffff82036118085761180761179c565b5b600182019050919050565b600061181e82610c7a565b915061182983610c7a565b92508282039050818111156118415761184061179c565b5b92915050565b7f50726564696374696f6e20646f65736e27742065786973740000000000000000600082015250565b600061187d601883610cf7565b915061188882611847565b602082019050919050565b600060208201905081810360008301526118ac81611870565b9050919050565b7f416c7265616479207265736f6c76656400000000000000000000000000000000600082015250565b60006118e9601083610cf7565b91506118f4826118b3565b602082019050919050565b60006020820190508181036000830152611918816118dc565b9050919050565b60006040820190506119346000830185610d89565b6119416020830184610da4565b9392505050565b600061195382610c7a565b915061195e83610c7a565b925082820261196c81610c7a565b915082820484148315176119835761198261179c565b5b5092915050565b7f4e487b7100000000000000000000000000000000000000000000000000000000600052601260045260246000fd5b60006119c482610c7a565b91506119cf83610c7a565b9250826119df576119de61198a565b5b828204905092915050565b7f4e487b7100000000000000000000000000000000000000000000000000000000600052603260045260246000fdfea2646970667358221220a3c2dc36c522b5a9746935b0173afc42989179e51410ea3af9d9d92784a2994064736f6c63430008140033","opcodes":"PUSH1 0x80 PUSH1 0x40 MSTORE CALLVALUE DUP1 ISZERO PUSH2 0x10 JUMPI PUSH1 0x0 DUP1 REVERT JUMPDEST POP PUSH2 0x1A4F DUP1 PUSH2 0x20 PUSH1 0x0 CODECOPY PUSH1 0x0 RETURN INVALID PUSH1 0x80 PUSH1 0x40 MSTORE CALLVALUE DUP1 ISZERO PUSH2 0x10 JUMPI PUSH1 0x0 DUP1 REVERT JUMPDEST POP PUSH1 0x4 CALLDATASIZE LT PUSH2 0x87 JUMPI PUSH1 0x0 CALLDATALOAD PUSH1 0xE0 SHR DUP1 PUSH4 0x92ABADC5 GT PUSH2 0x5B JUMPI DUP1 PUSH4 0x92ABADC5 EQ PUSH2 0x12D JUMPI DUP1 PUSH4 0xBC1C7285 EQ PUSH2 0x14B JUMPI DUP1 PUSH4 0xECA52661 EQ PUSH2 0x169 JUMPI DUP1 PUSH4 0xFE83BECE EQ PUSH2 0x187 JUMPI PUSH2 0x87 JUMP JUMPDEST DUP1 PUSH3 0x4FBBB0 EQ PUSH2 0x8C JUMPI DUP1 PUSH4 0x5647B271 EQ PUSH2 0xC3 JUMPI DUP1 PUSH4 0x6AAEA6DC EQ PUSH2 0xF3 JUMPI DUP1 PUSH4 0x8E0596A2 EQ PUSH2 0x10F JUMPI JUMPDEST PUSH1 0x0 DUP1 REVERT JUMPDEST PUSH2 0xA6 PUSH1 0x4 DUP1 CALLDATASIZE SUB DUP2 ADD SWAP1 PUSH2 0xA1 SWAP2 SWAP1 PUSH2 0xCB0 JUMP JUMPDEST PUSH2 0x1B7 JUMP JUMPDEST PUSH1 0x40 MLOAD PUSH2 0xBA SWAP9 SWAP8 SWAP7 SWAP6 SWAP5 SWAP4 SWAP3 SWAP2 SWAP1 PUSH2 0xDB3 JUMP JUMPDEST PUSH1 0x40 MLOAD DUP1 SWAP2 SUB SWAP1 RETURN JUMPDEST PUSH2 0xDD PUSH1 0x4 DUP1 CALLDATASIZE SUB DUP2 ADD SWAP1 PUSH2 0xD8 SWAP2 SWAP1 PUSH2 0xFA0 JUMP JUMPDEST PUSH2 0x343 JUMP JUMPDEST PUSH1 0x40 MLOAD PUSH2 0xEA SWAP2 SWAP1 PUSH2 0x103F JUMP JUMPDEST PUSH1 0x40 MLOAD DUP1 SWAP2 SUB SWAP1 RETURN JUMPDEST PUSH2 0x10D PUSH1 0x4 DUP1 CALLDATASIZE SUB DUP2 ADD SWAP1 PUSH2 0x108 SWAP2 SWAP1 PUSH2 0x105A JUMP JUMPDEST PUSH2 0x578 JUMP JUMPDEST STOP JUMPDEST PUSH2 0x117 PUSH2 0x74F JUMP JUMPDEST PUSH1 0x40 MLOAD PUSH2 0x124 SWAP2 SWAP1 PUSH2 0x103F JUMP JUMPDEST PUSH1 0x40 MLOAD DUP1 SWAP2 SUB SWAP1 RETURN JUMPDEST PUSH2 0x135 PUSH2 0x755 JUMP JUMPDEST PUSH1 0x40 MLOAD PUSH2 0x142 SWAP2 SWAP1 PUSH2 0x103F JUMP JUMPDEST PUSH1 0x40 MLOAD DUP1 SWAP2 SUB SWAP1 RETURN JUMPDEST PUSH2 0x153 PUSH2 0x78B JUMP JUMPDEST PUSH1 0x40 MLOAD PUSH2 0x160 SWAP2 SWAP1 PUSH2 0x128A JUMP JUMPDEST PUSH1 0x40 MLOAD DUP1 SWAP2 SUB SWAP1 RETURN JUMPDEST PUSH2 0x171 PUSH2 0x9F5 JUMP JUMPDEST PUSH1 0x40 MLOAD PUSH2 0x17E SWAP2 SWAP1 PUSH2 0x103F JUMP JUMPDEST PUSH1 0x40 MLOAD DUP1 SWAP2 SUB SWAP1 RETURN JUMPDEST PUSH2 0x1A1 PUSH1 0x4 DUP1 CALLDATASIZE SUB DUP2 ADD SWAP1 PUSH2 0x19C SWAP2 SWAP1 PUSH2 0xCB0 JUMP JUMPDEST PUSH2 0x9FB JUMP JUMPDEST PUSH1 0x40 MLOAD PUSH2 0x1AE SWAP2 SWAP1 PUSH2 0x1363 JUMP JUMPDEST PUSH1 0x40 MLOAD DUP1 SWAP2 SUB SWAP1 RETURN JUMPDEST PUSH1 0x0 PUSH1 0x20 MSTORE DUP1 PUSH1 0x0 MSTORE PUSH1 0x40 PUSH1 0x0 KECCAK256 PUSH1 0x0 SWAP2 POP SWAP1 POP DUP1 PUSH1 0x0 ADD SLOAD SWAP1 DUP1 PUSH1 0x1 ADD DUP1 SLOAD PUSH2 0x1E0 SWAP1 PUSH2 0x13B4 JUMP JUMPDEST DUP1 PUSH1 0x1F ADD PUSH1 0x20 DUP1 SWAP2 DIV MUL PUSH1 0x20 ADD PUSH1 0x40 MLOAD SWAP1 DUP2 ADD PUSH1 0x40 MSTORE DUP1 SWAP3 SWAP2 SWAP1 DUP2 DUP2 MSTORE PUSH1 0x20 ADD DUP3 DUP1 SLOAD PUSH2 0x20C SWAP1 PUSH2 0x13B4 JUMP JUMPDEST DUP1 ISZERO PUSH2 0x259 JUMPI DUP1 PUSH1 0x1F LT PUSH2 0x22E JUMPI PUSH2 0x100 DUP1 DUP4 SLOAD DIV MUL DUP4 MSTORE SWAP2 PUSH1 0x20 ADD SWAP2 PUSH2 0x259 JUMP JUMPDEST DUP3 ADD SWAP2 SWAP1 PUSH1 0x0 MSTORE PUSH1 0x20 PUSH1 0x0 KECCAK256 SWAP1 JUMPDEST DUP2 SLOAD DUP2 MSTORE SWAP1 PUSH1 0x1 ADD SWAP1 PUSH1 0x20 ADD DUP1 DUP4 GT PUSH2 0x23C JUMPI DUP3 SWAP1 SUB PUSH1 0x1F AND DUP3 ADD SWAP2 JUMPDEST POP POP POP POP POP SWAP1 DUP1 PUSH1 0x2 ADD DUP1 SLOAD PUSH2 0x26E SWAP1 PUSH2 0x13B4 JUMP JUMPDEST DUP1 PUSH1 0x1F ADD PUSH1 0x20 DUP1 SWAP2 DIV MUL PUSH1 0x20 ADD PUSH1 0x40 MLOAD SWAP1 DUP2 ADD PUSH1 0x40 MSTORE DUP1 SWAP3 SWAP2 SWAP1 DUP2 DUP2 MSTORE PUSH1 0x20 ADD DUP3 DUP1 SLOAD PUSH2 0x29A SWAP1 PUSH2 0x13B4 JUMP JUMPDEST DUP1 ISZERO PUSH2 0x2E7 JUMPI DUP1 PUSH1 0x1F LT PUSH2 0x2BC JUMPI PUSH2 0x100 DUP1 DUP4 SLOAD DIV MUL DUP4 MSTORE SWAP2 PUSH1 0x20 ADD SWAP2 PUSH2 0x2E7 JUMP JUMPDEST DUP3 ADD SWAP2 SWAP1 PUSH1 0x0 MSTORE PUSH1 0x20 PUSH1 0x0 KECCAK256 SWAP1 JUMPDEST DUP2 SLOAD DUP2 MSTORE SWAP1 PUSH1 0x1 ADD SWAP1 PUSH1 0x20 ADD DUP1 DUP4 GT PUSH2 0x2CA JUMPI DUP3 SWAP1 SUB PUSH1 0x1F AND DUP3 ADD SWAP2 JUMPDEST POP POP POP POP POP SWAP1 DUP1 PUSH1 0x3 ADD PUSH1 0x0 SWAP1 SLOAD SWAP1 PUSH2 0x100 EXP SWAP1 DIV PUSH1 0xFF AND SWAP1 DUP1 PUSH1 0x3 ADD PUSH1 0x1 SWAP1 SLOAD SWAP1 PUSH2 0x100 EXP SWAP1 DIV PUSH1 0xFF AND SWAP1 DUP1 PUSH1 0x4 ADD SLOAD SWAP1 DUP1 PUSH1 0x5 ADD PUSH1 0x0 SWAP1 SLOAD SWAP1 PUSH2 0x100 EXP SWAP1 DIV PUSH1 0xFF AND SWAP1 DUP1 PUSH1 0x5 ADD PUSH1 0x1 SWAP1 SLOAD SWAP1 PUSH2 0x100 EXP SWAP1 DIV PUSH1 0xFF AND SWAP1 POP DUP9 JUMP JUMPDEST PUSH1 0x0 PUSH1 0x2 DUP4 PUSH1 0xFF AND GT ISZERO PUSH2 0x38C JUMPI PUSH1 0x40 MLOAD PUSH32 0x8C379A000000000000000000000000000000000000000000000000000000000 DUP2 MSTORE PUSH1 0x4 ADD PUSH2 0x383 SWAP1 PUSH2 0x1431 JUMP JUMPDEST PUSH1 0x40 MLOAD DUP1 SWAP2 SUB SWAP1 REVERT JUMPDEST PUSH1 0x32 DUP3 PUSH1 0xFF AND LT ISZERO DUP1 ISZERO PUSH2 0x3A4 JUMPI POP PUSH1 0x63 DUP3 PUSH1 0xFF AND GT ISZERO JUMPDEST PUSH2 0x3E3 JUMPI PUSH1 0x40 MLOAD PUSH32 0x8C379A000000000000000000000000000000000000000000000000000000000 DUP2 MSTORE PUSH1 0x4 ADD PUSH2 0x3DA SWAP1 PUSH2 0x149D JUMP JUMPDEST PUSH1 0x40 MLOAD DUP1 SWAP2 SUB SWAP1 REVERT JUMPDEST PUSH1 0x40 MLOAD DUP1 PUSH2 0x100 ADD PUSH1 0x40 MSTORE DUP1 PUSH1 0x1 SLOAD DUP2 MSTORE PUSH1 0x20 ADD DUP7 DUP2 MSTORE PUSH1 0x20 ADD DUP6 DUP2 MSTORE PUSH1 0x20 ADD DUP5 PUSH1 0xFF AND DUP2 MSTORE PUSH1 0x20 ADD DUP4 PUSH1 0xFF AND DUP2 MSTORE PUSH1 0x20 ADD TIMESTAMP DUP2 MSTORE PUSH1 0x20 ADD PUSH1 0x0 ISZERO ISZERO DUP2 MSTORE PUSH1 0x20 ADD PUSH1 0x0 PUSH1 0xFF AND DUP2 MSTORE POP PUSH1 0x0 DUP1 PUSH1 0x1 SLOAD DUP2 MSTORE PUSH1 0x20 ADD SWAP1 DUP2 MSTORE PUSH1 0x20 ADD PUSH1 0x0 KECCAK256 PUSH1 0x0 DUP3 ADD MLOAD DUP2 PUSH1 0x0 ADD SSTORE PUSH1 0x20 DUP3 ADD MLOAD DUP2 PUSH1 0x1 ADD SWAP1 DUP2 PUSH2 0x45F SWAP2 SWAP1 PUSH2 0x1669 JUMP JUMPDEST POP PUSH1 0x40 DUP3 ADD MLOAD DUP2 PUSH1 0x2 ADD SWAP1 DUP2 PUSH2 0x475 SWAP2 SWAP1 PUSH2 0x1669 JUMP JUMPDEST POP PUSH1 0x60 DUP3 ADD MLOAD DUP2 PUSH1 0x3 ADD PUSH1 0x0 PUSH2 0x100 EXP DUP2 SLOAD DUP2 PUSH1 0xFF MUL NOT AND SWAP1 DUP4 PUSH1 0xFF AND MUL OR SWAP1 SSTORE POP PUSH1 0x80 DUP3 ADD MLOAD DUP2 PUSH1 0x3 ADD PUSH1 0x1 PUSH2 0x100 EXP DUP2 SLOAD DUP2 PUSH1 0xFF MUL NOT AND SWAP1 DUP4 PUSH1 0xFF AND MUL OR SWAP1 SSTORE POP PUSH1 0xA0 DUP3 ADD MLOAD DUP2 PUSH1 0x4 ADD SSTORE PUSH1 0xC0 DUP3 ADD MLOAD DUP2 PUSH1 0x5 ADD PUSH1 0x0 PUSH2 0x100 EXP DUP2 SLOAD DUP2 PUSH1 0xFF MUL NOT AND SWAP1 DUP4 ISZERO ISZERO MUL OR SWAP1 SSTORE POP PUSH1 0xE0 DUP3 ADD MLOAD DUP2 PUSH1 0x5 ADD PUSH1 0x1 PUSH2 0x100 EXP DUP2 SLOAD DUP2 PUSH1 0xFF MUL NOT AND SWAP1 DUP4 PUSH1 0xFF AND MUL OR SWAP1 SSTORE POP SWAP1 POP POP PUSH1 0x1 SLOAD PUSH32 0x8AE4E39201C79E4DBFEF642BCBA5F20B0E10A57B39BF8F7E361E278595E2D54A DUP7 DUP7 DUP7 DUP7 TIMESTAMP PUSH1 0x40 MLOAD PUSH2 0x540 SWAP6 SWAP5 SWAP4 SWAP3 SWAP2 SWAP1 PUSH2 0x173B JUMP JUMPDEST PUSH1 0x40 MLOAD DUP1 SWAP2 SUB SWAP1 LOG2 PUSH1 0x1 PUSH1 0x0 DUP2 SLOAD DUP1 SWAP3 SWAP2 SWAP1 PUSH2 0x55B SWAP1 PUSH2 0x17CB JUMP JUMPDEST SWAP2 SWAP1 POP SSTORE POP PUSH1 0x1 DUP1 SLOAD PUSH2 0x56E SWAP2 SWAP1 PUSH2 0x1813 JUMP JUMPDEST SWAP1 POP SWAP5 SWAP4 POP POP POP POP JUMP JUMPDEST PUSH1 0x1 SLOAD DUP3 LT PUSH2 0x5BC JUMPI PUSH1 0x40 MLOAD PUSH32 0x8C379A000000000000000000000000000000000000000000000000000000000 DUP2 MSTORE PUSH1 0x4 ADD PUSH2 0x5B3 SWAP1 PUSH2 0x1893 JUMP JUMPDEST PUSH1 0x40 MLOAD DUP1 SWAP2 SUB SWAP1 REVERT JUMPDEST PUSH1 0x0 DUP1 DUP4 DUP2 MSTORE PUSH1 0x20 ADD SWAP1 DUP2 MSTORE PUSH1 0x20 ADD PUSH1 0x0 KECCAK256 PUSH1 0x5 ADD PUSH1 0x0 SWAP1 SLOAD SWAP1 PUSH2 0x100 EXP SWAP1 DIV PUSH1 0xFF AND ISZERO PUSH2 0x61F JUMPI PUSH1 0x40 MLOAD PUSH32 0x8C379A000000000000000000000000000000000000000000000000000000000 DUP2 MSTORE PUSH1 0x4 ADD PUSH2 0x616 SWAP1 PUSH2 0x18FF JUMP JUMPDEST PUSH1 0x40 MLOAD DUP1 SWAP2 SUB SWAP1 REVERT JUMPDEST PUSH1 0x2 DUP2 PUSH1 0xFF AND GT ISZERO PUSH2 0x666 JUMPI PUSH1 0x40 MLOAD PUSH32 0x8C379A000000000000000000000000000000000000000000000000000000000 DUP2 MSTORE PUSH1 0x4 ADD PUSH2 0x65D SWAP1 PUSH2 0x1431 JUMP JUMPDEST PUSH1 0x40 MLOAD DUP1 SWAP2 SUB SWAP1 REVERT JUMPDEST PUSH1 0x1 PUSH1 0x0 DUP1 DUP5 DUP2 MSTORE PUSH1 0x20 ADD SWAP1 DUP2 MSTORE PUSH1 0x20 ADD PUSH1 0x0 KECCAK256 PUSH1 0x5 ADD PUSH1 0x0 PUSH2 0x100 EXP DUP2 SLOAD DUP2 PUSH1 0xFF MUL NOT AND SWAP1 DUP4 ISZERO ISZERO MUL OR SWAP1 SSTORE POP DUP1 PUSH1 0x0 DUP1 DUP5 DUP2 MSTORE PUSH1 0x20 ADD SWAP1 DUP2 MSTORE PUSH1 0x20 ADD PUSH1 0x0 KECCAK256 PUSH1 0x5 ADD PUSH1 0x1 PUSH2 0x100 EXP DUP2 SLOAD DUP2 PUSH1 0xFF MUL NOT AND SWAP1 DUP4 PUSH1 0xFF AND MUL OR SWAP1 SSTORE POP PUSH1 0x0 DUP2 PUSH1 0xFF AND PUSH1 0x0 DUP1 DUP6 DUP2 MSTORE PUSH1 0x20 ADD SWAP1 DUP2 MSTORE PUSH1 0x20 ADD PUSH1 0x0 KECCAK256 PUSH1 0x3 ADD PUSH1 0x0 SWAP1 SLOAD SWAP1 PUSH2 0x100 EXP SWAP1 DIV PUSH1 0xFF AND PUSH1 0xFF AND EQ SWAP1 POP DUP1 ISZERO PUSH2 0x710 JUMPI PUSH1 0x2 PUSH1 0x0 DUP2 SLOAD DUP1 SWAP3 SWAP2 SWAP1 PUSH2 0x70A SWAP1 PUSH2 0x17CB JUMP JUMPDEST SWAP2 SWAP1 POP SSTORE POP JUMPDEST DUP3 PUSH32 0x48C173FFA2262E5D5F066F7318DA9E019DE4CB75330C5A89CB60342F51A9F3E2 DUP4 DUP4 PUSH1 0x40 MLOAD PUSH2 0x742 SWAP3 SWAP2 SWAP1 PUSH2 0x191F JUMP JUMPDEST PUSH1 0x40 MLOAD DUP1 SWAP2 SUB SWAP1 LOG2 POP POP POP JUMP JUMPDEST PUSH1 0x1 SLOAD DUP2 JUMP JUMPDEST PUSH1 0x0 DUP1 PUSH1 0x1 SLOAD SUB PUSH2 0x769 JUMPI PUSH1 0x0 SWAP1 POP PUSH2 0x788 JUMP JUMPDEST PUSH1 0x1 SLOAD PUSH1 0x64 PUSH1 0x2 SLOAD PUSH2 0x77B SWAP2 SWAP1 PUSH2 0x1948 JUMP JUMPDEST PUSH2 0x785 SWAP2 SWAP1 PUSH2 0x19B9 JUMP JUMPDEST SWAP1 POP JUMPDEST SWAP1 JUMP JUMPDEST PUSH1 0x60 PUSH1 0x0 PUSH1 0x1 SLOAD PUSH8 0xFFFFFFFFFFFFFFFF DUP2 GT ISZERO PUSH2 0x7AB JUMPI PUSH2 0x7AA PUSH2 0xE49 JUMP JUMPDEST JUMPDEST PUSH1 0x40 MLOAD SWAP1 DUP1 DUP3 MSTORE DUP1 PUSH1 0x20 MUL PUSH1 0x20 ADD DUP3 ADD PUSH1 0x40 MSTORE DUP1 ISZERO PUSH2 0x7E4 JUMPI DUP2 PUSH1 0x20 ADD JUMPDEST PUSH2 0x7D1 PUSH2 0xC16 JUMP JUMPDEST DUP2 MSTORE PUSH1 0x20 ADD SWAP1 PUSH1 0x1 SWAP1 SUB SWAP1 DUP2 PUSH2 0x7C9 JUMPI SWAP1 POP JUMPDEST POP SWAP1 POP PUSH1 0x0 JUMPDEST PUSH1 0x1 SLOAD DUP2 LT ISZERO PUSH2 0x9ED JUMPI PUSH1 0x0 DUP1 DUP3 DUP2 MSTORE PUSH1 0x20 ADD SWAP1 DUP2 MSTORE PUSH1 0x20 ADD PUSH1 0x0 KECCAK256 PUSH1 0x40 MLOAD DUP1 PUSH2 0x100 ADD PUSH1 0x40 MSTORE SWAP1 DUP2 PUSH1 0x0 DUP3 ADD SLOAD DUP2 MSTORE PUSH1 0x20 ADD PUSH1 0x1 DUP3 ADD DUP1 SLOAD PUSH2 0x82C SWAP1 PUSH2 0x13B4 JUMP JUMPDEST DUP1 PUSH1 0x1F ADD PUSH1 0x20 DUP1 SWAP2 DIV MUL PUSH1 0x20 ADD PUSH1 0x40 MLOAD SWAP1 DUP2 ADD PUSH1 0x40 MSTORE DUP1 SWAP3 SWAP2 SWAP1 DUP2 DUP2 MSTORE PUSH1 0x20 ADD DUP3 DUP1 SLOAD PUSH2 0x858 SWAP1 PUSH2 0x13B4 JUMP JUMPDEST DUP1 ISZERO PUSH2 0x8A5 JUMPI DUP1 PUSH1 0x1F LT PUSH2 0x87A JUMPI PUSH2 0x100 DUP1 DUP4 SLOAD DIV MUL DUP4 MSTORE SWAP2 PUSH1 0x20 ADD SWAP2 PUSH2 0x8A5 JUMP JUMPDEST DUP3 ADD SWAP2 SWAP1 PUSH1 0x0 MSTORE PUSH1 0x20 PUSH1 0x0 KECCAK256 SWAP1 JUMPDEST DUP2 SLOAD DUP2 MSTORE SWAP1 PUSH1 0x1 ADD SWAP1 PUSH1 0x20 ADD DUP1 DUP4 GT PUSH2 0x888 JUMPI DUP3 SWAP1 SUB PUSH1 0x1F AND DUP3 ADD SWAP2 JUMPDEST POP POP POP POP POP DUP2 MSTORE PUSH1 0x20 ADD PUSH1 0x2 DUP3 ADD DUP1 SLOAD PUSH2 0x8BE SWAP1 PUSH2 0x13B4 JUMP JUMPDEST DUP1 PUSH1 0x1F ADD PUSH1 0x20 DUP1 SWAP2 DIV MUL PUSH1 0x20 ADD PUSH1 0x40 MLOAD SWAP1 DUP2 ADD PUSH1 0x40 MSTORE DUP1 SWAP3 SWAP2 SWAP1 DUP2 DUP2 MSTORE PUSH1 0x20 ADD DUP3 DUP1 SLOAD PUSH2 0x8EA SWAP1 PUSH2 0x13B4 JUMP JUMPDEST DUP1 ISZERO PUSH2 0x937 JUMPI DUP1 PUSH1 0x1F LT PUSH2 0x90C JUMPI PUSH2 0x100 DUP1 DUP4 SLOAD DIV MUL DUP4 MSTORE SWAP2 PUSH1 0x20 ADD SWAP2 PUSH2 0x937 JUMP JUMPDEST DUP3 ADD SWAP2 SWAP1 PUSH1 0x0 MSTORE PUSH1 0x20 PUSH1 0x0 KECCAK256 SWAP1 JUMPDEST DUP2 SLOAD DUP2 MSTORE SWAP1 PUSH1 0x1 ADD SWAP1 PUSH1 0x20 ADD DUP1 DUP4 GT PUSH2 0x91A JUMPI DUP3 SWAP1 SUB PUSH1 0x1F AND DUP3 ADD SWAP2 JUMPDEST POP POP POP POP POP DUP2 MSTORE PUSH1 0x20 ADD PUSH1 0x3 DUP3 ADD PUSH1 0x0 SWAP1 SLOAD SWAP1 PUSH2 0x100 EXP SWAP1 DIV PUSH1 0xFF AND PUSH1 0xFF AND PUSH1 0xFF AND DUP2 MSTORE PUSH1 0x20 ADD PUSH1 0x3 DUP3 ADD PUSH1 0x1 SWAP1 SLOAD SWAP1 PUSH2 0x100 EXP SWAP1 DIV PUSH1 0xFF AND PUSH1 0xFF AND PUSH1 0xFF AND DUP2 MSTORE PUSH1 0x20 ADD PUSH1 0x4 DUP3 ADD SLOAD DUP2 MSTORE PUSH1 0x20 ADD PUSH1 0x5 DUP3 ADD PUSH1 0x0 SWAP1 SLOAD SWAP1 PUSH2 0x100 EXP SWAP1 DIV PUSH1 0xFF AND ISZERO ISZERO ISZERO ISZERO DUP2 MSTORE PUSH1 0x20 ADD PUSH1 0x5 DUP3 ADD PUSH1 0x1 SWAP1 SLOAD SWAP1 PUSH2 0x100 EXP SWAP1 DIV PUSH1 0xFF AND PUSH1 0xFF AND PUSH1 0xFF AND DUP2 MSTORE POP POP DUP3 DUP3 DUP2 MLOAD DUP2 LT PUSH2 0x9CF JUMPI PUSH2 0x9CE PUSH2 0x19EA JUMP JUMPDEST JUMPDEST PUSH1 0x20 MUL PUSH1 0x20 ADD ADD DUP2 SWAP1 MSTORE POP DUP1 DUP1 PUSH2 0x9E5 SWAP1 PUSH2 0x17CB JUMP JUMPDEST SWAP2 POP POP PUSH2 0x7EA JUMP JUMPDEST POP DUP1 SWAP2 POP POP SWAP1 JUMP JUMPDEST PUSH1 0x2 SLOAD DUP2 JUMP JUMPDEST PUSH2 0xA03 PUSH2 0xC16 JUMP JUMPDEST PUSH1 0x1 SLOAD DUP3 LT PUSH2 0xA47 JUMPI PUSH1 0x40 MLOAD PUSH32 0x8C379A000000000000000000000000000000000000000000000000000000000 DUP2 MSTORE PUSH1 0x4 ADD PUSH2 0xA3E SWAP1 PUSH2 0x1893 JUMP JUMPDEST PUSH1 0x40 MLOAD DUP1 SWAP2 SUB SWAP1 REVERT JUMPDEST PUSH1 0x0 DUP1 DUP4 DUP2 MSTORE PUSH1 0x20 ADD SWAP1 DUP2 MSTORE PUSH1 0x20 ADD PUSH1 0x0 KECCAK256 PUSH1 0x40 MLOAD DUP1 PUSH2 0x100 ADD PUSH1 0x40 MSTORE SWAP1 DUP2 PUSH1 0x0 DUP3 ADD SLOAD DUP2 MSTORE PUSH1 0x20 ADD PUSH1 0x1 DUP3 ADD DUP1 SLOAD PUSH2 0xA7F SWAP1 PUSH2 0x13B4 JUMP JUMPDEST DUP1 PUSH1 0x1F ADD PUSH1 0x20 DUP1 SWAP2 DIV MUL PUSH1 0x20 ADD PUSH1 0x40 MLOAD SWAP1 DUP2 ADD PUSH1 0x40 MSTORE DUP1 SWAP3 SWAP2 SWAP1 DUP2 DUP2 MSTORE PUSH1 0x20 ADD DUP3 DUP1 SLOAD PUSH2 0xAAB SWAP1 PUSH2 0x13B4 JUMP JUMPDEST DUP1 ISZERO PUSH2 0xAF8 JUMPI DUP1 PUSH1 0x1F LT PUSH2 0xACD JUMPI PUSH2 0x100 DUP1 DUP4 SLOAD DIV MUL DUP4 MSTORE SWAP2 PUSH1 0x20 ADD SWAP2 PUSH2 0xAF8 JUMP JUMPDEST DUP3 ADD SWAP2 SWAP1 PUSH1 0x0 MSTORE PUSH1 0x20 PUSH1 0x0 KECCAK256 SWAP1 JUMPDEST DUP2 SLOAD DUP2 MSTORE SWAP1 PUSH1 0x1 ADD SWAP1 PUSH1 0x20 ADD DUP1 DUP4 GT PUSH2 0xADB JUMPI DUP3 SWAP1 SUB PUSH1 0x1F AND DUP3 ADD SWAP2 JUMPDEST POP POP POP POP POP DUP2 MSTORE PUSH1 0x20 ADD PUSH1 0x2 DUP3 ADD DUP1 SLOAD PUSH2 0xB11 SWAP1 PUSH2 0x13B4 JUMP JUMPDEST DUP1 PUSH1 0x1F ADD PUSH1 0x20 DUP1 SWAP2 DIV MUL PUSH1 0x20 ADD PUSH1 0x40 MLOAD SWAP1 DUP2 ADD PUSH1 0x40 MSTORE DUP1 SWAP3 SWAP2 SWAP1 DUP2 DUP2 MSTORE PUSH1 0x20 ADD DUP3 DUP1 SLOAD PUSH2 0xB3D SWAP1 PUSH2 0x13B4 JUMP JUMPDEST DUP1 ISZERO PUSH2 0xB8A JUMPI DUP1 PUSH1 0x1F LT PUSH2 0xB5F JUMPI PUSH2 0x100 DUP1 DUP4 SLOAD DIV MUL DUP4 MSTORE SWAP2 PUSH1 0x20 ADD SWAP2 PUSH2 0xB8A JUMP JUMPDEST DUP3 ADD SWAP2 SWAP1 PUSH1 0x0 MSTORE PUSH1 0x20 PUSH1 0x0 KECCAK256 SWAP1 JUMPDEST DUP2 SLOAD DUP2 MSTORE SWAP1 PUSH1 0x1 ADD SWAP1 PUSH1 0x20 ADD DUP1 DUP4 GT PUSH2 0xB6D JUMPI DUP3 SWAP1 SUB PUSH1 0x1F AND DUP3 ADD SWAP2 JUMPDEST POP POP POP POP POP DUP2 MSTORE PUSH1 0x20 ADD PUSH1 0x3 DUP3 ADD PUSH1 0x0 SWAP1 SLOAD SWAP1 PUSH2 0x100 EXP SWAP1 DIV PUSH1 0xFF AND PUSH1 0xFF AND PUSH1 0xFF AND DUP2 MSTORE PUSH1 0x20 ADD PUSH1 0x3 DUP3 ADD PUSH1 0x1 SWAP1 SLOAD SWAP1 PUSH2 0x100 EXP SWAP1 DIV PUSH1 0xFF AND PUSH1 0xFF AND PUSH1 0xFF AND DUP2 MSTORE PUSH1 0x20 ADD PUSH1 0x4 DUP3 ADD SLOAD DUP2 MSTORE PUSH1 0x20 ADD PUSH1 0x5 DUP3 ADD PUSH1 0x0 SWAP1 SLOAD SWAP1 PUSH2 0x100 EXP SWAP1 DIV PUSH1 0xFF AND ISZERO ISZERO ISZERO ISZERO DUP2 MSTORE PUSH1 0x20 ADD PUSH1 0x5 DUP3 ADD PUSH1 0x1 SWAP1 SLOAD SWAP1 PUSH2 0x100 EXP SWAP1 DIV PUSH1 0xFF AND PUSH1 0xFF AND PUSH1 0xFF AND DUP2 MSTORE POP POP SWAP1 POP SWAP2 SWAP1 POP JUMP JUMPDEST PUSH1 0x40 MLOAD DUP1 PUSH2 0x100 ADD PUSH1 0x40 MSTORE DUP1 PUSH1 0x0 DUP2 MSTORE PUSH1 0x20 ADD PUSH1 0x60 DUP2 MSTORE PUSH1 0x20 ADD PUSH1 0x60 DUP2 MSTORE PUSH1 0x20 ADD PUSH1 0x0 PUSH1 0xFF AND DUP2 MSTORE PUSH1 0x20 ADD PUSH1 0x0 PUSH1 0xFF AND DUP2 MSTORE PUSH1 0x20 ADD PUSH1 0x0 DUP2 MSTORE PUSH1 0x20 ADD PUSH1 0x0 ISZERO ISZERO DUP2 MSTORE PUSH1 0x20 ADD PUSH1 0x0 PUSH1 0xFF AND DUP2 MSTORE POP SWAP1 JUMP JUMPDEST PUSH1 0x0 PUSH1 0x40 MLOAD SWAP1 POP SWAP1 JUMP JUMPDEST PUSH1 0x0 DUP1 REVERT JUMPDEST PUSH1 0x0 DUP1 REVERT JUMPDEST PUSH1 0x0 DUP2 SWAP1 POP SWAP2 SWAP1 POP JUMP JUMPDEST PUSH2 0xC8D DUP2 PUSH2 0xC7A JUMP JUMPDEST DUP2 EQ PUSH2 0xC98 JUMPI PUSH1 0x0 DUP1 REVERT JUMPDEST POP JUMP JUMPDEST PUSH1 0x0 DUP2 CALLDATALOAD SWAP1 POP PUSH2 0xCAA DUP2 PUSH2 0xC84 JUMP JUMPDEST SWAP3 SWAP2 POP POP JUMP JUMPDEST PUSH1 0x0 PUSH1 0x20 DUP3 DUP5 SUB SLT ISZERO PUSH2 0xCC6 JUMPI PUSH2 0xCC5 PUSH2 0xC70 JUMP JUMPDEST JUMPDEST PUSH1 0x0 PUSH2 0xCD4 DUP5 DUP3 DUP6 ADD PUSH2 0xC9B JUMP JUMPDEST SWAP2 POP POP SWAP3 SWAP2 POP POP JUMP JUMPDEST PUSH2 0xCE6 DUP2 PUSH2 0xC7A JUMP JUMPDEST DUP3 MSTORE POP POP JUMP JUMPDEST PUSH1 0x0 DUP2 MLOAD SWAP1 POP SWAP2 SWAP1 POP JUMP JUMPDEST PUSH1 0x0 DUP3 DUP3 MSTORE PUSH1 0x20 DUP3 ADD SWAP1 POP SWAP3 SWAP2 POP POP JUMP JUMPDEST PUSH1 0x0 JUMPDEST DUP4 DUP2 LT ISZERO PUSH2 0xD26 JUMPI DUP1 DUP3 ADD MLOAD DUP2 DUP5 ADD MSTORE PUSH1 0x20 DUP2 ADD SWAP1 POP PUSH2 0xD0B JUMP JUMPDEST PUSH1 0x0 DUP5 DUP5 ADD MSTORE POP POP POP POP JUMP JUMPDEST PUSH1 0x0 PUSH1 0x1F NOT PUSH1 0x1F DUP4 ADD AND SWAP1 POP SWAP2 SWAP1 POP JUMP JUMPDEST PUSH1 0x0 PUSH2 0xD4E DUP3 PUSH2 0xCEC JUMP JUMPDEST PUSH2 0xD58 DUP2 DUP6 PUSH2 0xCF7 JUMP JUMPDEST SWAP4 POP PUSH2 0xD68 DUP2 DUP6 PUSH1 0x20 DUP7 ADD PUSH2 0xD08 JUMP JUMPDEST PUSH2 0xD71 DUP2 PUSH2 0xD32 JUMP JUMPDEST DUP5 ADD SWAP2 POP POP SWAP3 SWAP2 POP POP JUMP JUMPDEST PUSH1 0x0 PUSH1 0xFF DUP3 AND SWAP1 POP SWAP2 SWAP1 POP JUMP JUMPDEST PUSH2 0xD92 DUP2 PUSH2 0xD7C JUMP JUMPDEST DUP3 MSTORE POP POP JUMP JUMPDEST PUSH1 0x0 DUP2 ISZERO ISZERO SWAP1 POP SWAP2 SWAP1 POP JUMP JUMPDEST PUSH2 0xDAD DUP2 PUSH2 0xD98 JUMP JUMPDEST DUP3 MSTORE POP POP JUMP JUMPDEST PUSH1 0x0 PUSH2 0x100 DUP3 ADD SWAP1 POP PUSH2 0xDC9 PUSH1 0x0 DUP4 ADD DUP12 PUSH2 0xCDD JUMP JUMPDEST DUP2 DUP2 SUB PUSH1 0x20 DUP4 ADD MSTORE PUSH2 0xDDB DUP2 DUP11 PUSH2 0xD43 JUMP JUMPDEST SWAP1 POP DUP2 DUP2 SUB PUSH1 0x40 DUP4 ADD MSTORE PUSH2 0xDEF DUP2 DUP10 PUSH2 0xD43 JUMP JUMPDEST SWAP1 POP PUSH2 0xDFE PUSH1 0x60 DUP4 ADD DUP9 PUSH2 0xD89 JUMP JUMPDEST PUSH2 0xE0B PUSH1 0x80 DUP4 ADD DUP8 PUSH2 0xD89 JUMP JUMPDEST PUSH2 0xE18 PUSH1 0xA0 DUP4 ADD DUP7 PUSH2 0xCDD JUMP JUMPDEST PUSH2 0xE25 PUSH1 0xC0 DUP4 ADD DUP6 PUSH2 0xDA4 JUMP JUMPDEST PUSH2 0xE32 PUSH1 0xE0 DUP4 ADD DUP5 PUSH2 0xD89 JUMP JUMPDEST SWAP10 SWAP9 POP POP POP POP POP POP POP POP POP JUMP JUMPDEST PUSH1 0x0 DUP1 REVERT JUMPDEST PUSH1 0x0 DUP1 REVERT JUMPDEST PUSH32 0x4E487B7100000000000000000000000000000000000000000000000000000000 PUSH1 0x0 MSTORE PUSH1 0x41 PUSH1 0x4 MSTORE PUSH1 0x24 PUSH1 0x0 REVERT JUMPDEST PUSH2 0xE81 DUP3 PUSH2 0xD32 JUMP JUMPDEST DUP2 ADD DUP2 DUP2 LT PUSH8 0xFFFFFFFFFFFFFFFF DUP3 GT OR ISZERO PUSH2 0xEA0 JUMPI PUSH2 0xE9F PUSH2 0xE49 JUMP JUMPDEST JUMPDEST DUP1 PUSH1 0x40 MSTORE POP POP POP JUMP JUMPDEST PUSH1 0x0 PUSH2 0xEB3 PUSH2 0xC66 JUMP JUMPDEST SWAP1 POP PUSH2 0xEBF DUP3 DUP3 PUSH2 0xE78 JUMP JUMPDEST SWAP2 SWAP1 POP JUMP JUMPDEST PUSH1 0x0 PUSH8 0xFFFFFFFFFFFFFFFF DUP3 GT ISZERO PUSH2 0xEDF JUMPI PUSH2 0xEDE PUSH2 0xE49 JUMP JUMPDEST JUMPDEST PUSH2 0xEE8 DUP3 PUSH2 0xD32 JUMP JUMPDEST SWAP1 POP PUSH1 0x20 DUP2 ADD SWAP1 POP SWAP2 SWAP1 POP JUMP JUMPDEST DUP3 DUP2 DUP4 CALLDATACOPY PUSH1 0x0 DUP4 DUP4 ADD MSTORE POP POP POP JUMP JUMPDEST PUSH1 0x0 PUSH2 0xF17 PUSH2 0xF12 DUP5 PUSH2 0xEC4 JUMP JUMPDEST PUSH2 0xEA9 JUMP JUMPDEST SWAP1 POP DUP3 DUP2 MSTORE PUSH1 0x20 DUP2 ADD DUP5 DUP5 DUP5 ADD GT ISZERO PUSH2 0xF33 JUMPI PUSH2 0xF32 PUSH2 0xE44 JUMP JUMPDEST JUMPDEST PUSH2 0xF3E DUP5 DUP3 DUP6 PUSH2 0xEF5 JUMP JUMPDEST POP SWAP4 SWAP3 POP POP POP JUMP JUMPDEST PUSH1 0x0 DUP3 PUSH1 0x1F DUP4 ADD SLT PUSH2 0xF5B JUMPI PUSH2 0xF5A PUSH2 0xE3F JUMP JUMPDEST JUMPDEST DUP2 CALLDATALOAD PUSH2 0xF6B DUP5 DUP3 PUSH1 0x20 DUP7 ADD PUSH2 0xF04 JUMP JUMPDEST SWAP2 POP POP SWAP3 SWAP2 POP POP JUMP JUMPDEST PUSH2 0xF7D DUP2 PUSH2 0xD7C JUMP JUMPDEST DUP2 EQ PUSH2 0xF88 JUMPI PUSH1 0x0 DUP1 REVERT JUMPDEST POP JUMP JUMPDEST PUSH1 0x0 DUP2 CALLDATALOAD SWAP1 POP PUSH2 0xF9A DUP2 PUSH2 0xF74 JUMP JUMPDEST SWAP3 SWAP2 POP POP JUMP JUMPDEST PUSH1 0x0 DUP1 PUSH1 0x0 DUP1 PUSH1 0x80 DUP6 DUP8 SUB SLT ISZERO PUSH2 0xFBA JUMPI PUSH2 0xFB9 PUSH2 0xC70 JUMP JUMPDEST JUMPDEST PUSH1 0x0 DUP6 ADD CALLDATALOAD PUSH8 0xFFFFFFFFFFFFFFFF DUP2 GT ISZERO PUSH2 0xFD8 JUMPI PUSH2 0xFD7 PUSH2 0xC75 JUMP JUMPDEST JUMPDEST PUSH2 0xFE4 DUP8 DUP3 DUP9 ADD PUSH2 0xF46 JUMP JUMPDEST SWAP5 POP POP PUSH1 0x20 DUP6 ADD CALLDATALOAD PUSH8 0xFFFFFFFFFFFFFFFF DUP2 GT ISZERO PUSH2 0x1005 JUMPI PUSH2 0x1004 PUSH2 0xC75 JUMP JUMPDEST JUMPDEST PUSH2 0x1011 DUP8 DUP3 DUP9 ADD PUSH2 0xF46 JUMP JUMPDEST SWAP4 POP POP PUSH1 0x40 PUSH2 0x1022 DUP8 DUP3 DUP9 ADD PUSH2 0xF8B JUMP JUMPDEST SWAP3 POP POP PUSH1 0x60 PUSH2 0x1033 DUP8 DUP3 DUP9 ADD PUSH2 0xF8B JUMP JUMPDEST SWAP2 POP POP SWAP3 SWAP6 SWAP2 SWAP5 POP SWAP3 POP JUMP JUMPDEST PUSH1 0x0 PUSH1 0x20 DUP3 ADD SWAP1 POP PUSH2 0x1054 PUSH1 0x0 DUP4 ADD DUP5 PUSH2 0xCDD JUMP JUMPDEST SWAP3 SWAP2 POP POP JUMP JUMPDEST PUSH1 0x0 DUP1 PUSH1 0x40 DUP4 DUP6 SUB SLT ISZERO PUSH2 0x1071 JUMPI PUSH2 0x1070 PUSH2 0xC70 JUMP JUMPDEST JUMPDEST PUSH1 0x0 PUSH2 0x107F DUP6 DUP3 DUP7 ADD PUSH2 0xC9B JUMP JUMPDEST SWAP3 POP POP PUSH1 0x20 PUSH2 0x1090 DUP6 DUP3 DUP7 ADD PUSH2 0xF8B JUMP JUMPDEST SWAP2 POP POP SWAP3 POP SWAP3 SWAP1 POP JUMP JUMPDEST PUSH1 0x0 DUP2 MLOAD SWAP1 POP SWAP2 SWAP1 POP JUMP JUMPDEST PUSH1 0x0 DUP3 DUP3 MSTORE PUSH1 0x20 DUP3 ADD SWAP1 POP SWAP3 SWAP2 POP POP JUMP JUMPDEST PUSH1 0x0 DUP2 SWAP1 POP PUSH1 0x20 DUP3 ADD SWAP1 POP SWAP2 SWAP1 POP JUMP JUMPDEST PUSH2 0x10CF DUP2 PUSH2 0xC7A JUMP JUMPDEST DUP3 MSTORE POP POP JUMP JUMPDEST PUSH1 0x0 DUP3 DUP3 MSTORE PUSH1 0x20 DUP3 ADD SWAP1 POP SWAP3 SWAP2 POP POP JUMP JUMPDEST PUSH1 0x0 PUSH2 0x10F1 DUP3 PUSH2 0xCEC JUMP JUMPDEST PUSH2 0x10FB DUP2 DUP6 PUSH2 0x10D5 JUMP JUMPDEST SWAP4 POP PUSH2 0x110B DUP2 DUP6 PUSH1 0x20 DUP7 ADD PUSH2 0xD08 JUMP JUMPDEST PUSH2 0x1114 DUP2 PUSH2 0xD32 JUMP JUMPDEST DUP5 ADD SWAP2 POP POP SWAP3 SWAP2 POP POP JUMP JUMPDEST PUSH2 0x1128 DUP2 PUSH2 0xD7C JUMP JUMPDEST DUP3 MSTORE POP POP JUMP JUMPDEST PUSH2 0x1137 DUP2 PUSH2 0xD98 JUMP JUMPDEST DUP3 MSTORE POP POP JUMP JUMPDEST PUSH1 0x0 PUSH2 0x100 DUP4 ADD PUSH1 0x0 DUP4 ADD MLOAD PUSH2 0x1156 PUSH1 0x0 DUP7 ADD DUP3 PUSH2 0x10C6 JUMP JUMPDEST POP PUSH1 0x20 DUP4 ADD MLOAD DUP5 DUP3 SUB PUSH1 0x20 DUP7 ADD MSTORE PUSH2 0x116E DUP3 DUP3 PUSH2 0x10E6 JUMP JUMPDEST SWAP2 POP POP PUSH1 0x40 DUP4 ADD MLOAD DUP5 DUP3 SUB PUSH1 0x40 DUP7 ADD MSTORE PUSH2 0x1188 DUP3 DUP3 PUSH2 0x10E6 JUMP JUMPDEST SWAP2 POP POP PUSH1 0x60 DUP4 ADD MLOAD PUSH2 0x119D PUSH1 0x60 DUP7 ADD DUP3 PUSH2 0x111F JUMP JUMPDEST POP PUSH1 0x80 DUP4 ADD MLOAD PUSH2 0x11B0 PUSH1 0x80 DUP7 ADD DUP3 PUSH2 0x111F JUMP JUMPDEST POP PUSH1 0xA0 DUP4 ADD MLOAD PUSH2 0x11C3 PUSH1 0xA0 DUP7 ADD DUP3 PUSH2 0x10C6 JUMP JUMPDEST POP PUSH1 0xC0 DUP4 ADD MLOAD PUSH2 0x11D6 PUSH1 0xC0 DUP7 ADD DUP3 PUSH2 0x112E JUMP JUMPDEST POP PUSH1 0xE0 DUP4 ADD MLOAD PUSH2 0x11E9 PUSH1 0xE0 DUP7 ADD DUP3 PUSH2 0x111F JUMP JUMPDEST POP DUP1 SWAP2 POP POP SWAP3 SWAP2 POP POP JUMP JUMPDEST PUSH1 0x0 PUSH2 0x1200 DUP4 DUP4 PUSH2 0x113D JUMP JUMPDEST SWAP1 POP SWAP3 SWAP2 POP POP JUMP JUMPDEST PUSH1 0x0 PUSH1 0x20 DUP3 ADD SWAP1 POP SWAP2 SWAP1 POP JUMP JUMPDEST PUSH1 0x0 PUSH2 0x1220 DUP3 PUSH2 0x109A JUMP JUMPDEST PUSH2 0x122A DUP2 DUP6 PUSH2 0x10A5 JUMP JUMPDEST SWAP4 POP DUP4 PUSH1 0x20 DUP3 MUL DUP6 ADD PUSH2 0x123C DUP6 PUSH2 0x10B6 JUMP JUMPDEST DUP1 PUSH1 0x0 JUMPDEST DUP6 DUP2 LT ISZERO PUSH2 0x1278 JUMPI DUP5 DUP5 SUB DUP10 MSTORE DUP2 MLOAD PUSH2 0x1259 DUP6 DUP3 PUSH2 0x11F4 JUMP JUMPDEST SWAP5 POP PUSH2 0x1264 DUP4 PUSH2 0x1208 JUMP JUMPDEST SWAP3 POP PUSH1 0x20 DUP11 ADD SWAP10 POP POP PUSH1 0x1 DUP2 ADD SWAP1 POP PUSH2 0x1240 JUMP JUMPDEST POP DUP3 SWAP8 POP DUP8 SWAP6 POP POP POP POP POP POP SWAP3 SWAP2 POP POP JUMP JUMPDEST PUSH1 0x0 PUSH1 0x20 DUP3 ADD SWAP1 POP DUP2 DUP2 SUB PUSH1 0x0 DUP4 ADD MSTORE PUSH2 0x12A4 DUP2 DUP5 PUSH2 0x1215 JUMP JUMPDEST SWAP1 POP SWAP3 SWAP2 POP POP JUMP JUMPDEST PUSH1 0x0 PUSH2 0x100 DUP4 ADD PUSH1 0x0 DUP4 ADD MLOAD PUSH2 0x12C5 PUSH1 0x0 DUP7 ADD DUP3 PUSH2 0x10C6 JUMP JUMPDEST POP PUSH1 0x20 DUP4 ADD MLOAD DUP5 DUP3 SUB PUSH1 0x20 DUP7 ADD MSTORE PUSH2 0x12DD DUP3 DUP3 PUSH2 0x10E6 JUMP JUMPDEST SWAP2 POP POP PUSH1 0x40 DUP4 ADD MLOAD DUP5 DUP3 SUB PUSH1 0x40 DUP7 ADD MSTORE PUSH2 0x12F7 DUP3 DUP3 PUSH2 0x10E6 JUMP JUMPDEST SWAP2 POP POP PUSH1 0x60 DUP4 ADD MLOAD PUSH2 0x130C PUSH1 0x60 DUP7 ADD DUP3 PUSH2 0x111F JUMP JUMPDEST POP PUSH1 0x80 DUP4 ADD MLOAD PUSH2 0x131F PUSH1 0x80 DUP7 ADD DUP3 PUSH2 0x111F JUMP JUMPDEST POP PUSH1 0xA0 DUP4 ADD MLOAD PUSH2 0x1332 PUSH1 0xA0 DUP7 ADD DUP3 PUSH2 0x10C6 JUMP JUMPDEST POP PUSH1 0xC0 DUP4 ADD MLOAD PUSH2 0x1345 PUSH1 0xC0 DUP7 ADD DUP3 PUSH2 0x112E JUMP JUMPDEST POP PUSH1 0xE0 DUP4 ADD MLOAD PUSH2 0x1358 PUSH1 0xE0 DUP7 ADD DUP3 PUSH2 0x111F JUMP JUMPDEST POP DUP1 SWAP2 POP POP SWAP3 SWAP2 POP POP JUMP JUMPDEST PUSH1 0x0 PUSH1 0x20 DUP3 ADD SWAP1 POP DUP2 DUP2 SUB PUSH1 0x0 DUP4 ADD MSTORE PUSH2 0x137D DUP2 DUP5 PUSH2 0x12AC JUMP JUMPDEST SWAP1 POP SWAP3 SWAP2 POP POP JUMP JUMPDEST PUSH32 0x4E487B7100000000000000000000000000000000000000000000000000000000 PUSH1 0x0 MSTORE PUSH1 0x22 PUSH1 0x4 MSTORE PUSH1 0x24 PUSH1 0x0 REVERT JUMPDEST PUSH1 0x0 PUSH1 0x2 DUP3 DIV SWAP1 POP PUSH1 0x1 DUP3 AND DUP1 PUSH2 0x13CC JUMPI PUSH1 0x7F DUP3 AND SWAP2 POP JUMPDEST PUSH1 0x20 DUP3 LT DUP2 SUB PUSH2 0x13DF JUMPI PUSH2 0x13DE PUSH2 0x1385 JUMP JUMPDEST JUMPDEST POP SWAP2 SWAP1 POP JUMP JUMPDEST PUSH32 0x496E76616C69642077696E6E6572000000000000000000000000000000000000 PUSH1 0x0 DUP3 ADD MSTORE POP JUMP JUMPDEST PUSH1 0x0 PUSH2 0x141B PUSH1 0xE DUP4 PUSH2 0xCF7 JUMP JUMPDEST SWAP2 POP PUSH2 0x1426 DUP3 PUSH2 0x13E5 JUMP JUMPDEST PUSH1 0x20 DUP3 ADD SWAP1 POP SWAP2 SWAP1 POP JUMP JUMPDEST PUSH1 0x0 PUSH1 0x20 DUP3 ADD SWAP1 POP DUP2 DUP2 SUB PUSH1 0x0 DUP4 ADD MSTORE PUSH2 0x144A DUP2 PUSH2 0x140E JUMP JUMPDEST SWAP1 POP SWAP2 SWAP1 POP JUMP JUMPDEST PUSH32 0x436F6E666964656E6365206D7573742062652035302D39392500000000000000 PUSH1 0x0 DUP3 ADD MSTORE POP JUMP JUMPDEST PUSH1 0x0 PUSH2 0x1487 PUSH1 0x19 DUP4 PUSH2 0xCF7 JUMP JUMPDEST SWAP2 POP PUSH2 0x1492 DUP3 PUSH2 0x1451 JUMP JUMPDEST PUSH1 0x20 DUP3 ADD SWAP1 POP SWAP2 SWAP1 POP JUMP JUMPDEST PUSH1 0x0 PUSH1 0x20 DUP3 ADD SWAP1 POP DUP2 DUP2 SUB PUSH1 0x0 DUP4 ADD MSTORE PUSH2 0x14B6 DUP2 PUSH2 0x147A JUMP JUMPDEST SWAP1 POP SWAP2 SWAP1 POP JUMP JUMPDEST PUSH1 0x0 DUP2 SWAP1 POP DUP2 PUSH1 0x0 MSTORE PUSH1 0x20 PUSH1 0x0 KECCAK256 SWAP1 POP SWAP2 SWAP1 POP JUMP JUMPDEST PUSH1 0x0 PUSH1 0x20 PUSH1 0x1F DUP4 ADD DIV SWAP1 POP SWAP2 SWAP1 POP JUMP JUMPDEST PUSH1 0x0 DUP3 DUP3 SHL SWAP1 POP SWAP3 SWAP2 POP POP JUMP JUMPDEST PUSH1 0x0 PUSH1 0x8 DUP4 MUL PUSH2 0x151F PUSH32 0xFFFFFFFFFFFFFFFFFFFFFFFFFFFFFFFFFFFFFFFFFFFFFFFFFFFFFFFFFFFFFFFF DUP3 PUSH2 0x14E2 JUMP JUMPDEST PUSH2 0x1529 DUP7 DUP4 PUSH2 0x14E2 JUMP JUMPDEST SWAP6 POP DUP1 NOT DUP5 AND SWAP4 POP DUP1 DUP7 AND DUP5 OR SWAP3 POP POP POP SWAP4 SWAP3 POP POP POP JUMP JUMPDEST PUSH1 0x0 DUP2 SWAP1 POP SWAP2 SWAP1 POP JUMP JUMPDEST PUSH1 0x0 PUSH2 0x1566 PUSH2 0x1561 PUSH2 0x155C DUP5 PUSH2 0xC7A JUMP JUMPDEST PUSH2 0x1541 JUMP JUMPDEST PUSH2 0xC7A JUMP JUMPDEST SWAP1 POP SWAP2 SWAP1 POP JUMP JUMPDEST PUSH1 0x0 DUP2 SWAP1 POP SWAP2 SWAP1 POP JUMP JUMPDEST PUSH2 0x1580 DUP4 PUSH2 0x154B JUMP JUMPDEST PUSH2 0x1594 PUSH2 0x158C DUP3 PUSH2 0x156D JUMP JUMPDEST DUP5 DUP5 SLOAD PUSH2 0x14EF JUMP JUMPDEST DUP3 SSTORE POP POP POP POP JUMP JUMPDEST PUSH1 0x0 SWAP1 JUMP JUMPDEST PUSH2 0x15A9 PUSH2 0x159C JUMP JUMPDEST PUSH2 0x15B4 DUP2 DUP5 DUP5 PUSH2 0x1577 JUMP JUMPDEST POP POP POP JUMP JUMPDEST JUMPDEST DUP2 DUP2 LT ISZERO PUSH2 0x15D8 JUMPI PUSH2 0x15CD PUSH1 0x0 DUP3 PUSH2 0x15A1 JUMP JUMPDEST PUSH1 0x1 DUP2 ADD SWAP1 POP PUSH2 0x15BA JUMP JUMPDEST POP POP JUMP JUMPDEST PUSH1 0x1F DUP3 GT ISZERO PUSH2 0x161D JUMPI PUSH2 0x15EE DUP2 PUSH2 0x14BD JUMP JUMPDEST PUSH2 0x15F7 DUP5 PUSH2 0x14D2 JUMP JUMPDEST DUP2 ADD PUSH1 0x20 DUP6 LT ISZERO PUSH2 0x1606 JUMPI DUP2 SWAP1 POP JUMPDEST PUSH2 0x161A PUSH2 0x1612 DUP6 PUSH2 0x14D2 JUMP JUMPDEST DUP4 ADD DUP3 PUSH2 0x15B9 JUMP JUMPDEST POP POP JUMPDEST POP POP POP JUMP JUMPDEST PUSH1 0x0 DUP3 DUP3 SHR SWAP1 POP SWAP3 SWAP2 POP POP JUMP JUMPDEST PUSH1 0x0 PUSH2 0x1640 PUSH1 0x0 NOT DUP5 PUSH1 0x8 MUL PUSH2 0x1622 JUMP JUMPDEST NOT DUP1 DUP4 AND SWAP2 POP POP SWAP3 SWAP2 POP POP JUMP JUMPDEST PUSH1 0x0 PUSH2 0x1659 DUP4 DUP4 PUSH2 0x162F JUMP JUMPDEST SWAP2 POP DUP3 PUSH1 0x2 MUL DUP3 OR SWAP1 POP SWAP3 SWAP2 POP POP JUMP JUMPDEST PUSH2 0x1672 DUP3 PUSH2 0xCEC JUMP JUMPDEST PUSH8 0xFFFFFFFFFFFFFFFF DUP2 GT ISZERO PUSH2 0x168B JUMPI PUSH2 0x168A PUSH2 0xE49 JUMP JUMPDEST JUMPDEST PUSH2 0x1695 DUP3 SLOAD PUSH2 0x13B4 JUMP JUMPDEST PUSH2 0x16A0 DUP3 DUP3 DUP6 PUSH2 0x15DC JUMP JUMPDEST PUSH1 0x0 PUSH1 0x20 SWAP1 POP PUSH1 0x1F DUP4 GT PUSH1 0x1 DUP2 EQ PUSH2 0x16D3 JUMPI PUSH1 0x0 DUP5 ISZERO PUSH2 0x16C1 JUMPI DUP3 DUP8 ADD MLOAD SWAP1 POP JUMPDEST PUSH2 0x16CB DUP6 DUP3 PUSH2 0x164D JUMP JUMPDEST DUP7 SSTORE POP PUSH2 0x1733 JUMP JUMPDEST PUSH1 0x1F NOT DUP5 AND PUSH2 0x16E1 DUP7 PUSH2 0x14BD JUMP JUMPDEST PUSH1 0x0 JUMPDEST DUP3 DUP2 LT ISZERO PUSH2 0x1709 JUMPI DUP5 DUP10 ADD MLOAD DUP3 SSTORE PUSH1 0x1 DUP3 ADD SWAP2 POP PUSH1 0x20 DUP6 ADD SWAP5 POP PUSH1 0x20 DUP2 ADD SWAP1 POP PUSH2 0x16E4 JUMP JUMPDEST DUP7 DUP4 LT ISZERO PUSH2 0x1726 JUMPI DUP5 DUP10 ADD MLOAD PUSH2 0x1722 PUSH1 0x1F DUP10 AND DUP3 PUSH2 0x162F JUMP JUMPDEST DUP4 SSTORE POP JUMPDEST PUSH1 0x1 PUSH1 0x2 DUP9 MUL ADD DUP9 SSTORE POP POP POP JUMPDEST POP POP POP POP POP POP JUMP JUMPDEST PUSH1 0x0 PUSH1 0xA0 DUP3 ADD SWAP1 POP DUP2 DUP2 SUB PUSH1 0x0 DUP4 ADD MSTORE PUSH2 0x1755 DUP2 DUP9 PUSH2 0xD43 JUMP JUMPDEST SWAP1 POP DUP2 DUP2 SUB PUSH1 0x20 DUP4 ADD MSTORE PUSH2 0x1769 DUP2 DUP8 PUSH2 0xD43 JUMP JUMPDEST SWAP1 POP PUSH2 0x1778 PUSH1 0x40 DUP4 ADD DUP7 PUSH2 0xD89 JUMP JUMPDEST PUSH2 0x1785 PUSH1 0x60 DUP4 ADD DUP6 PUSH2 0xD89 JUMP JUMPDEST PUSH2 0x1792 PUSH1 0x80 DUP4 ADD DUP5 PUSH2 0xCDD JUMP JUMPDEST SWAP7 SWAP6 POP POP POP POP POP POP JUMP JUMPDEST PUSH32 0x4E487B7100000000000000000000000000000000000000000000000000000000 PUSH1 0x0 MSTORE PUSH1 0x11 PUSH1 0x4 MSTORE PUSH1 0x24 PUSH1 0x0 REVERT JUMPDEST PUSH1 0x0 PUSH2 0x17D6 DUP3 PUSH2 0xC7A JUMP JUMPDEST SWAP2 POP PUSH32 0xFFFFFFFFFFFFFFFFFFFFFFFFFFFFFFFFFFFFFFFFFFFFFFFFFFFFFFFFFFFFFFFF DUP3 SUB PUSH2 0x1808 JUMPI PUSH2 0x1807 PUSH2 0x179C JUMP JUMPDEST JUMPDEST PUSH1 0x1 DUP3 ADD SWAP1 POP SWAP2 SWAP1 POP JUMP JUMPDEST PUSH1 0x0 PUSH2 0x181E DUP3 PUSH2 0xC7A JUMP JUMPDEST SWAP2 POP PUSH2 0x1829 DUP4 PUSH2 0xC7A JUMP JUMPDEST SWAP3 POP DUP3 DUP3 SUB SWAP1 POP DUP2 DUP2 GT ISZERO PUSH2 0x1841 JUMPI PUSH2 0x1840 PUSH2 0x179C JUMP JUMPDEST JUMPDEST SWAP3 SWAP2 POP POP JUMP JUMPDEST PUSH32 0x50726564696374696F6E20646F65736E27742065786973740000000000000000 PUSH1 0x0 DUP3 ADD MSTORE POP JUMP JUMPDEST PUSH1 0x0 PUSH2 0x187D PUSH1 0x18 DUP4 PUSH2 0xCF7 JUMP JUMPDEST SWAP2 POP PUSH2 0x1888 DUP3 PUSH2 0x1847 JUMP JUMPDEST PUSH1 0x20 DUP3 ADD SWAP1 POP SWAP2 SWAP1 POP JUMP JUMPDEST PUSH1 0x0 PUSH1 0x20 DUP3 ADD SWAP1 POP DUP2 DUP2 SUB PUSH1 0x0 DUP4 ADD MSTORE PUSH2 0x18AC DUP2 PUSH2 0x1870 JUMP JUMPDEST SWAP1 POP SWAP2 SWAP1 POP JUMP JUMPDEST PUSH32 0x416C7265616479207265736F6C76656400000000000000000000000000000000 PUSH1 0x0 DUP3 ADD MSTORE POP JUMP JUMPDEST PUSH1 0x0 PUSH2 0x18E9 PUSH1 0x10 DUP4 PUSH2 0xCF7 JUMP JUMPDEST SWAP2 POP PUSH2 0x18F4 DUP3 PUSH2 0x18B3 JUMP JUMPDEST PUSH1 0x20 DUP3 ADD SWAP1 POP SWAP2 SWAP1 POP JUMP JUMPDEST PUSH1 0x0 PUSH1 0x20 DUP3 ADD SWAP1 POP DUP2 DUP2 SUB PUSH1 0x0 DUP4 ADD MSTORE PUSH2 0x1918 DUP2 PUSH2 0x18DC JUMP JUMPDEST SWAP1 POP SWAP2 SWAP1 POP JUMP JUMPDEST PUSH1 0x0 PUSH1 0x40 DUP3 ADD SWAP1 POP PUSH2 0x1934 PUSH1 0x0 DUP4 ADD DUP6 PUSH2 0xD89 JUMP JUMPDEST PUSH2 0x1941 PUSH1 0x20 DUP4 ADD DUP5 PUSH2 0xDA4 JUMP JUMPDEST SWAP4 SWAP3 POP POP POP JUMP JUMPDEST PUSH1 0x0 PUSH2 0x1953 DUP3 PUSH2 0xC7A JUMP JUMPDEST SWAP2 POP PUSH2 0x195E DUP4 PUSH2 0xC7A JUMP JUMPDEST SWAP3 POP DUP3 DUP3 MUL PUSH2 0x196C DUP2 PUSH2 0xC7A JUMP JUMPDEST SWAP2 POP DUP3 DUP3 DIV DUP5 EQ DUP4 ISZERO OR PUSH2 0x1983 JUMPI PUSH2 0x1982 PUSH2 0x179C JUMP JUMPDEST JUMPDEST POP SWAP3 SWAP2 POP POP JUMP JUMPDEST PUSH32 0x4E487B7100000000000000000000000000000000000000000000000000000000 PUSH1 0x0 MSTORE PUSH1 0x12 PUSH1 0x4 MSTORE PUSH1 0x24 PUSH1 0x0 REVERT JUMPDEST PUSH1 0x0 PUSH2 0x19C4 DUP3 PUSH2 0xC7A JUMP JUMPDEST SWAP2 POP PUSH2 0x19CF DUP4 PUSH2 0xC7A JUMP JUMPDEST SWAP3 POP DUP3 PUSH2 0x19DF JUMPI PUSH2 0x19DE PUSH2 0x198A JUMP JUMPDEST JUMPDEST DUP3 DUP3 DIV SWAP1 POP SWAP3 SWAP2 POP POP JUMP JUMPDEST PUSH32 0x4E487B7100000000000000000000000000000000000000000000000000000000 PUSH1 0x0 MSTORE PUSH1 0x32 PUSH1 0x4 MSTORE PUSH1 0x24 PUSH1 0x0 REVERT INVALID LOG2 PUSH5 0x6970667358 0x22 SLT KECCAK256 LOG3 0xC2 0xDC CALLDATASIZE 0xC5 0x22 0xB5 0xA9 PUSH21 0x6935B0173AFC42989179E51410EA3AF9D9D92784A2 SWAP10 BLOCKHASH PUSH5 0x736F6C6343 STOP ADDMOD EQ STOP CALLER "},"methodIdentifiers":{"correctPredictions()":"eca52661","getAccuracy()":"92abadc5","getAllPredictions()":"bc1c7285","getPrediction(uint256)":"fe83bece","predictionCount()":"8e0596a2","predictions(uint256)":"004fbbb0","recordPrediction(string,string,uint8,uint8)":"5647b271","resolvePrediction(uint256,uint8)":"6aaea6dc"}}}}}