{
  "_format": "hh3-artifact-1",
  "contractName": "PredictionMarket",
  "sourceName": "contracts/PredictionMarket.sol",
  "abi": [
    {
      "anonymous": false,
      "inputs": [
        {
          "indexed": true,
          "internalType": "uint256",
          "name": "id",
          "type": "uint256"
        },
        {
          "indexed": false,
          "internalType": "string",
          "name": "homeTeam",
          "type": "string"
        },
        {
          "indexed": false,
          "internalType": "string",
          "name": "awayTeam",
          "type": "string"
        },
        {
          "indexed": false,
          "internalType": "uint8",
          "name": "predictedWinner",
          "type": "uint8"
        },
        {
          "indexed": false,
          "internalType": "uint8",
          "name": "confidence",
          "type": "uint8"
        },
        {
          "indexed": false,
          "internalType": "uint256",
          "name": "timestamp",
          "type": "uint256"
        }
      ],
      "name": "PredictionMade",
      "type": "event"
    },
    {
      "anonymous": false,
      "inputs": [
        {
          "indexed": true,
          "internalType": "uint256",
          "name": "id",
          "type": "uint256"
        },
        {
          "indexed": false,
          "internalType": "uint8",
          "name": "actualWinner",
          "type": "uint8"
        },
        {
          "indexed": false,
          "internalType": "bool",
          "name": "correct",
          "type": "bool"
        }
      ],
      "name": "PredictionResolved",
      "type": "event"
    },
    {
      "inputs": [],
      "name": "correctPredictions",
      "outputs": [
        {
          "internalType": "uint256",
          "name": "",
          "type": "uint256"
        }
      ],
      "stateMutability": "view",
      "type": "function"
    },
    {
      "inputs": [],
      "name": "getAccuracy",
      "outputs": [
        {
          "internalType": "uint256",
          "name": "",
          "type": "uint256"
        }
      ],
      "stateMutability": "view",
      "type": "function"
    },
    {
      "inputs": [],
      "name": "getAllPredictions",
      "outputs": [
        {
          "components": [
            {
              "internalType": "uint256",
              "name": "id",
              "type": "uint256"
            },
            {
              "internalType": "string",
              "name": "homeTeam",
              "type": "string"
            },
            {
              "internalType": "string",
              "name": "awayTeam",
              "type": "string"
            },
            {
              "internalType": "uint8",
              "name": "predictedWinner",
              "type": "uint8"
            },
            {
              "internalType": "uint8",
              "name": "confidence",
              "type": "uint8"
            },
            {
              "internalType": "uint256",
              "name": "timestamp",
              "type": "uint256"
            },
            {
              "internalType": "bool",
              "name": "resolved",
              "type": "bool"
            },
            {
              "internalType": "uint8",
              "name": "actualWinner",
              "type": "uint8"
            }
          ],
          "internalType": "struct PredictionMarket.Prediction[]",
          "name": "",
          "type": "tuple[]"
        }
      ],
      "stateMutability": "view",
      "type": "function"
    },
    {
      "inputs": [
        {
          "internalType": "uint256",
          "name": "_id",
          "type": "uint256"
        }
      ],
      "name": "getPrediction",
      "outputs": [
        {
          "components": [
            {
              "internalType": "uint256",
              "name": "id",
              "type": "uint256"
            },
            {
              "internalType": "string",
              "name": "homeTeam",
              "type": "string"
            },
            {
              "internalType": "string",
              "name": "awayTeam",
              "type": "string"
            },
            {
              "internalType": "uint8",
              "name": "predictedWinner",
              "type": "uint8"
            },
            {
              "internalType": "uint8",
              "name": "confidence",
              "type": "uint8"
            },
            {
              "internalType": "uint256",
              "name": "timestamp",
              "type": "uint256"
            },
            {
              "internalType": "bool",
              "name": "resolved",
              "type": "bool"
            },
            {
              "internalType": "uint8",
              "name": "actualWinner",
              "type": "uint8"
            }
          ],
          "internalType": "struct PredictionMarket.Prediction",
          "name": "",
          "type": "tuple"
        }
      ],
      "stateMutability": "view",
      "type": "function"
    },
    {
      "inputs": [],
      "name": "predictionCount",
      "outputs": [
        {
          "internalType": "uint256",
          "name": "",
          "type": "uint256"
        }
      ],
      "stateMutability": "view",
      "type": "function"
    },
    {
      "inputs": [
        {
          "internalType": "uint256",
          "name": "",
          "type": "uint256"
        }
      ],
      "name": "predictions",
      "outputs": [
        {
          "internalType": "uint256",
          "name": "id",
          "type": "uint256"
        },
        {
          "internalType": "string",
          "name": "homeTeam",
          "type": "string"
        },
        {
          "internalType": "string",
          "name": "awayTeam",
          "type": "string"
        },
        {
          "internalType": "uint8",
          "name": "predictedWinner",
          "type": "uint8"
        },
        {
          "internalType": "uint8",
          "name": "confidence",
          "type": "uint8"
        },
        {
          "internalType": "uint256",
          "name": "timestamp",
          "type": "uint256"
        },
        {
          "internalType": "bool",
          "name": "resolved",
          "type": "bool"
        },
        {
          "internalType": "uint8",
          "name": "actualWinner",
          "type": "uint8"
        }
      ],
      "stateMutability": "view",
      "type": "function"
    },
    {
      "inputs": [
        {
          "internalType": "string",
          "name": "_home",
          "type": "string"
        },
        {
          "internalType": "string",
          "name": "_away",
          "type": "string"
        },
        {
          "internalType": "uint8",
          "name": "_winner",
          "type": "uint8"
        },
        {
          "internalType": "uint8",
          "name": "_confidence",
          "type": "uint8"
        }
      ],
      "name": "recordPrediction",
      "outputs": [
        {
          "internalType": "uint256",
          "name": "",
          "type": "uint256"
        }
      ],
      "stateMutability": "nonpayable",
      "type": "function"
    },
    {
      "inputs": [
        {
          "internalType": "uint256",
          "name": "_id",
          "type": "uint256"
        },
        {
          "internalType": "uint8",
          "name": "_actualWinner",
          "type": "uint8"
        }
      ],
      "name": "resolvePrediction",
      "outputs": [],
      "stateMutability": "nonpayable",
      "type": "function"
    }
  ],
  "bytecode": "0x6080604052348015600e575f5ffd5b5061198a8061001c5f395ff3fe608060405234801561000f575f5ffd5b5060043610610085575f3560e01c806392abadc51161005957806392abadc51461012a578063bc1c728514610148578063eca5266114610166578063fe83bece1461018457610085565b80624fbbb0146100895780635647b271146100c05780636aaea6dc146100f05780638e0596a21461010c575b5f5ffd5b6100a3600480360381019061009e9190610c66565b6101b4565b6040516100b7989796959493929190610d45565b60405180910390f35b6100da60048036038101906100d59190610f25565b610335565b6040516100e79190610fc1565b60405180910390f35b61010a60048036038101906101059190610fda565b610560565b005b61011461072a565b6040516101219190610fc1565b60405180910390f35b610132610730565b60405161013f9190610fc1565b60405180910390f35b610150610764565b60405161015d91906111fc565b60405180910390f35b61016e6109c0565b60405161017b9190610fc1565b60405180910390f35b61019e60048036038101906101999190610c66565b6109c6565b6040516101ab91906112d0565b60405180910390f35b5f602052805f5260405f205f91509050805f0154908060010180546101d89061131d565b80601f01602080910402602001604051908101604052809291908181526020018280546102049061131d565b801561024f5780601f106102265761010080835404028352916020019161024f565b820191905f5260205f20905b81548152906001019060200180831161023257829003601f168201915b5050505050908060020180546102649061131d565b80601f01602080910402602001604051908101604052809291908181526020018280546102909061131d565b80156102db5780601f106102b2576101008083540402835291602001916102db565b820191905f5260205f20905b8154815290600101906020018083116102be57829003601f168201915b505050505090806003015f9054906101000a900460ff16908060030160019054906101000a900460ff1690806004015490806005015f9054906101000a900460ff16908060050160019054906101000a900460ff16905088565b5f60028360ff16111561037d576040517f08c379a000000000000000000000000000000000000000000000000000000000815260040161037490611397565b60405180910390fd5b60328260ff1610158015610395575060638260ff1611155b6103d4576040517f08c379a00000000000000000000000000000000000000000000000000000000081526004016103cb906113ff565b60405180910390fd5b60405180610100016040528060015481526020018681526020018581526020018460ff1681526020018360ff1681526020014281526020015f151581526020015f60ff168152505f5f60015481526020019081526020015f205f820151815f0155602082015181600101908161044a91906115bd565b50604082015181600201908161046091906115bd565b506060820151816003015f6101000a81548160ff021916908360ff16021790555060808201518160030160016101000a81548160ff021916908360ff16021790555060a0820151816004015560c0820151816005015f6101000a81548160ff02191690831515021790555060e08201518160050160016101000a81548160ff021916908360ff1602179055509050506001547f8ae4e39201c79e4dbfef642bcba5f20b0e10a57b39bf8f7e361e278595e2d54a868686864260405161052995949392919061168c565b60405180910390a260015f81548092919061054390611718565b919050555060018054610556919061175f565b9050949350505050565b60015482106105a4576040517f08c379a000000000000000000000000000000000000000000000000000000000815260040161059b906117dc565b60405180910390fd5b5f5f8381526020019081526020015f206005015f9054906101000a900460ff1615610604576040517f08c379a00000000000000000000000000000000000000000000000000000000081526004016105fb90611844565b60405180910390fd5b60028160ff16111561064b576040517f08c379a000000000000000000000000000000000000000000000000000000000815260040161064290611397565b60405180910390fd5b60015f5f8481526020019081526020015f206005015f6101000a81548160ff021916908315150217905550805f5f8481526020019081526020015f2060050160016101000a81548160ff021916908360ff1602179055505f8160ff165f5f8581526020019081526020015f206003015f9054906101000a900460ff1660ff1614905080156106eb5760025f8154809291906106e590611718565b91905055505b827f48c173ffa2262e5d5f066f7318da9e019de4cb75330c5a89cb60342f51a9f3e2838360405161071d929190611862565b60405180910390a2505050565b60015481565b5f5f60015403610742575f9050610761565b60015460646002546107549190611889565b61075e91906118f7565b90505b90565b60605f60015467ffffffffffffffff81111561078357610782610dd7565b5b6040519080825280602002602001820160405280156107bc57816020015b6107a9610bd8565b8152602001906001900390816107a15790505b5090505f5f90505b6001548110156109b8575f5f8281526020019081526020015f20604051806101000160405290815f82015481526020016001820180546108039061131d565b80601f016020809104026020016040519081016040528092919081815260200182805461082f9061131d565b801561087a5780601f106108515761010080835404028352916020019161087a565b820191905f5260205f20905b81548152906001019060200180831161085d57829003601f168201915b505050505081526020016002820180546108939061131d565b80601f01602080910402602001604051908101604052809291908181526020018280546108bf9061131d565b801561090a5780601f106108e15761010080835404028352916020019161090a565b820191905f5260205f20905b8154815290600101906020018083116108ed57829003601f168201915b50505050508152602001600382015f9054906101000a900460ff1660ff1660ff1681526020016003820160019054906101000a900460ff1660ff1660ff16815260200160048201548152602001600582015f9054906101000a900460ff161515151581526020016005820160019054906101000a900460ff1660ff1660ff16815250508282815181106109a05761099f611927565b5b602002602001018190525080806001019150506107c4565b508091505090565b60025481565b6109ce610bd8565b6001548210610a12576040517f08c379a0000000000000000000000000000000000000000000000000000000008152600401610a09906117dc565b60405180910390fd5b5f5f8381526020019081526020015f20604051806101000160405290815f8201548152602001600182018054610a479061131d565b80601f0160208091040260200160405190810160405280929190818152602001828054610a739061131d565b8015610abe5780601f10610a9557610100808354040283529160200191610abe565b820191905f5260205f20905b815481529060010190602001808311610aa157829003601f168201915b50505050508152602001600282018054610ad79061131d565b80601f0160208091040260200160405190810160405280929190818152602001828054610b039061131d565b8015610b4e5780601f10610b2557610100808354040283529160200191610b4e565b820191905f5260205f20905b815481529060010190602001808311610b3157829003601f168201915b50505050508152602001600382015f9054906101000a900460ff1660ff1660ff1681526020016003820160019054906101000a900460ff1660ff1660ff16815260200160048201548152602001600582015f9054906101000a900460ff161515151581526020016005820160019054906101000a900460ff1660ff1660ff16815250509050919050565b6040518061010001604052805f815260200160608152602001606081526020015f60ff1681526020015f60ff1681526020015f81526020015f151581526020015f60ff1681525090565b5f604051905090565b5f5ffd5b5f5ffd5b5f819050919050565b610c4581610c33565b8114610c4f575f5ffd5b50565b5f81359050610c6081610c3c565b92915050565b5f60208284031215610c7b57610c7a610c2b565b5b5f610c8884828501610c52565b91505092915050565b610c9a81610c33565b82525050565b5f81519050919050565b5f82825260208201905092915050565b8281835e5f83830152505050565b5f601f19601f8301169050919050565b5f610ce282610ca0565b610cec8185610caa565b9350610cfc818560208601610cba565b610d0581610cc8565b840191505092915050565b5f60ff82169050919050565b610d2581610d10565b82525050565b5f8115159050919050565b610d3f81610d2b565b82525050565b5f61010082019050610d595f83018b610c91565b8181036020830152610d6b818a610cd8565b90508181036040830152610d7f8189610cd8565b9050610d8e6060830188610d1c565b610d9b6080830187610d1c565b610da860a0830186610c91565b610db560c0830185610d36565b610dc260e0830184610d1c565b9998505050505050505050565b5f5ffd5b5f5ffd5b7f4e487b71000000000000000000000000000000000000000000000000000000005f52604160045260245ffd5b610e0d82610cc8565b810181811067ffffffffffffffff82111715610e2c57610e2b610dd7565b5b80604052505050565b5f610e3e610c22565b9050610e4a8282610e04565b919050565b5f67ffffffffffffffff821115610e6957610e68610dd7565b5b610e7282610cc8565b9050602081019050919050565b828183375f83830152505050565b5f610e9f610e9a84610e4f565b610e35565b905082815260208101848484011115610ebb57610eba610dd3565b5b610ec6848285610e7f565b509392505050565b5f82601f830112610ee257610ee1610dcf565b5b8135610ef2848260208601610e8d565b91505092915050565b610f0481610d10565b8114610f0e575f5ffd5b50565b5f81359050610f1f81610efb565b92915050565b5f5f5f5f60808587031215610f3d57610f3c610c2b565b5b5f85013567ffffffffffffffff811115610f5a57610f59610c2f565b5b610f6687828801610ece565b945050602085013567ffffffffffffffff811115610f8757610f86610c2f565b5b610f9387828801610ece565b9350506040610fa487828801610f11565b9250506060610fb587828801610f11565b91505092959194509250565b5f602082019050610fd45f830184610c91565b92915050565b5f5f60408385031215610ff057610fef610c2b565b5b5f610ffd85828601610c52565b925050602061100e85828601610f11565b9150509250929050565b5f81519050919050565b5f82825260208201905092915050565b5f819050602082019050919050565b61104a81610c33565b82525050565b5f82825260208201905092915050565b5f61106a82610ca0565b6110748185611050565b9350611084818560208601610cba565b61108d81610cc8565b840191505092915050565b6110a181610d10565b82525050565b6110b081610d2b565b82525050565b5f61010083015f8301516110cc5f860182611041565b50602083015184820360208601526110e48282611060565b915050604083015184820360408601526110fe8282611060565b91505060608301516111136060860182611098565b5060808301516111266080860182611098565b5060a083015161113960a0860182611041565b5060c083015161114c60c08601826110a7565b5060e083015161115f60e0860182611098565b508091505092915050565b5f61117583836110b6565b905092915050565b5f602082019050919050565b5f61119382611018565b61119d8185611022565b9350836020820285016111af85611032565b805f5b858110156111ea57848403895281516111cb858261116a565b94506111d68361117d565b925060208a019950506001810190506111b2565b50829750879550505050505092915050565b5f6020820190508181035f8301526112148184611189565b905092915050565b5f61010083015f8301516112325f860182611041565b506020830151848203602086015261124a8282611060565b915050604083015184820360408601526112648282611060565b91505060608301516112796060860182611098565b50608083015161128c6080860182611098565b5060a083015161129f60a0860182611041565b5060c08301516112b260c08601826110a7565b5060e08301516112c560e0860182611098565b508091505092915050565b5f6020820190508181035f8301526112e8818461121c565b905092915050565b7f4e487b71000000000000000000000000000000000000000000000000000000005f52602260045260245ffd5b5f600282049050600182168061133457607f821691505b602082108103611347576113466112f0565b5b50919050565b7f496e76616c69642077696e6e65720000000000000000000000000000000000005f82015250565b5f611381600e83610caa565b915061138c8261134d565b602082019050919050565b5f6020820190508181035f8301526113ae81611375565b9050919050565b7f436f6e666964656e6365206d7573742062652035302d393925000000000000005f82015250565b5f6113e9601983610caa565b91506113f4826113b5565b602082019050919050565b5f6020820190508181035f830152611416816113dd565b9050919050565b5f819050815f5260205f209050919050565b5f6020601f8301049050919050565b5f82821b905092915050565b5f600883026114797fffffffffffffffffffffffffffffffffffffffffffffffffffffffffffffffff8261143e565b611483868361143e565b95508019841693508086168417925050509392505050565b5f819050919050565b5f6114be6114b96114b484610c33565b61149b565b610c33565b9050919050565b5f819050919050565b6114d7836114a4565b6114eb6114e3826114c5565b84845461144a565b825550505050565b5f5f905090565b6115026114f3565b61150d8184846114ce565b505050565b5b81811015611530576115255f826114fa565b600181019050611513565b5050565b601f821115611575576115468161141d565b61154f8461142f565b8101602085101561155e578190505b61157261156a8561142f565b830182611512565b50505b505050565b5f82821c905092915050565b5f6115955f198460080261157a565b1980831691505092915050565b5f6115ad8383611586565b9150826002028217905092915050565b6115c682610ca0565b67ffffffffffffffff8111156115df576115de610dd7565b5b6115e9825461131d565b6115f4828285611534565b5f60209050601f831160018114611625575f8415611613578287015190505b61161d85826115a2565b865550611684565b601f1984166116338661141d565b5f5b8281101561165a57848901518255600182019150602085019450602081019050611635565b868310156116775784890151611673601f891682611586565b8355505b6001600288020188555050505b505050505050565b5f60a0820190508181035f8301526116a48188610cd8565b905081810360208301526116b88187610cd8565b90506116c76040830186610d1c565b6116d46060830185610d1c565b6116e16080830184610c91565b9695505050505050565b7f4e487b71000000000000000000000000000000000000000000000000000000005f52601160045260245ffd5b5f61172282610c33565b91507fffffffffffffffffffffffffffffffffffffffffffffffffffffffffffffffff8203611754576117536116eb565b5b600182019050919050565b5f61176982610c33565b915061177483610c33565b925082820390508181111561178c5761178b6116eb565b5b92915050565b7f50726564696374696f6e20646f65736e277420657869737400000000000000005f82015250565b5f6117c6601883610caa565b91506117d182611792565b602082019050919050565b5f6020820190508181035f8301526117f3816117ba565b9050919050565b7f416c7265616479207265736f6c766564000000000000000000000000000000005f82015250565b5f61182e601083610caa565b9150611839826117fa565b602082019050919050565b5f6020820190508181035f83015261185b81611822565b9050919050565b5f6040820190506118755f830185610d1c565b6118826020830184610d36565b9392505050565b5f61189382610c33565b915061189e83610c33565b92508282026118ac81610c33565b915082820484148315176118c3576118c26116eb565b5b5092915050565b7f4e487b71000000000000000000000000000000000000000000000000000000005f52601260045260245ffd5b5f61190182610c33565b915061190c83610c33565b92508261191c5761191b6118ca565b5b828204905092915050565b7f4e487b71000000000000000000000000000000000000000000000000000000005f52603260045260245ffdfea26469706673582212205f3df9195f98f007f046c8c37fd4e434e102315e1ad7757470fe391118ddb5fd64736f6c634300081c0033",
  "linkReferences": {},
  "deployedLinkReferences": {},
  "immutableReferences": {},
  "inputSourceName": "project/contracts/PredictionMarket.sol",
  "buildInfoId": "solc-0_8_28-f63629b5a007c7778aec4f86d34e97f1e9609d7a"
}