{
  "_format": "hh-sol-artifact-1",
  "contractName": "PredictionMarket",
  "sourceName": "contracts/PredictionMarket.sol",
  "abi": [
    {
      "anonymous": false,
      "inputs": [
        {
          "indexed": true,
          "internalType": "uint256",
          "name": "id",
          "type": "uint256"
        },
        {
          "indexed": false,
          "internalType": "string",
          "name": "homeTeam",
          "type": "string"
        },
        {
          "indexed": false,
          "internalType": "string",
          "name": "awayTeam",
          "type": "string"
        },
        {
          "indexed": false,
          "internalType": "uint8",
          "name": "predictedWinner",
          "type": "uint8"
        },
        {
          "indexed": false,
          "internalType": "uint8",
          "name": "confidence",
          "type": "uint8"
        },
        {
          "indexed": false,
          "internalType": "uint256",
          "name": "timestamp",
          "type": "uint256"
        }
      ],
      "name": "PredictionMade",
      "type": "event"
    },
    {
      "anonymous": false,
      "inputs": [
        {
          "indexed": true,
          "internalType": "uint256",
          "name": "id",
          "type": "uint256"
        },
        {
          "indexed": false,
          "internalType": "uint8",
          "name": "actualWinner",
          "type": "uint8"
        },
        {
          "indexed": false,
          "internalType": "bool",
          "name": "correct",
          "type": "bool"
        }
      ],
      "name": "PredictionResolved",
      "type": "event"
    },
    {
      "inputs": [],
      "name": "correctPredictions",
      "outputs": [
        {
          "internalType": "uint256",
          "name": "",
          "type": "uint256"
        }
      ],
      "stateMutability": "view",
      "type": "function"
    },
    {
      "inputs": [],
      "name": "getAccuracy",
      "outputs": [
        {
          "internalType": "uint256",
          "name": "",
          "type": "uint256"
        }
      ],
      "stateMutability": "view",
      "type": "function"
    },
    {
      "inputs": [],
      "name": "getAllPredictions",
      "outputs": [
        {
          "components": [
            {
              "internalType": "uint256",
              "name": "id",
              "type": "uint256"
            },
            {
              "internalType": "string",
              "name": "homeTeam",
              "type": "string"
            },
            {
              "internalType": "string",
              "name": "awayTeam",
              "type": "string"
            },
            {
              "internalType": "uint8",
              "name": "predictedWinner",
              "type": "uint8"
            },
            {
              "internalType": "uint8",
              "name": "confidence",
              "type": "uint8"
            },
            {
              "internalType": "uint256",
              "name": "timestamp",
              "type": "uint256"
            },
            {
              "internalType": "bool",
              "name": "resolved",
              "type": "bool"
            },
            {
              "internalType": "uint8",
              "name": "actualWinner",
              "type": "uint8"
            }
          ],
          "internalType": "struct PredictionMarket.Prediction[]",
          "name": "",
          "type": "tuple[]"
        }
      ],
      "stateMutability": "view",
      "type": "function"
    },
    {
      "inputs": [
        {
          "internalType": "uint256",
          "name": "_id",
          "type": "uint256"
        }
      ],
      "name": "getPrediction",
      "outputs": [
        {
          "components": [
            {
              "internalType": "uint256",
              "name": "id",
              "type": "uint256"
            },
            {
              "internalType": "string",
              "name": "homeTeam",
              "type": "string"
            },
            {
              "internalType": "string",
              "name": "awayTeam",
              "type": "string"
            },
            {
              "internalType": "uint8",
              "name": "predictedWinner",
              "type": "uint8"
            },
            {
              "internalType": "uint8",
              "name": "confidence",
              "type": "uint8"
            },
            {
              "internalType": "uint256",
              "name": "timestamp",
              "type": "uint256"
            },
            {
              "internalType": "bool",
              "name": "resolved",
              "type": "bool"
            },
            {
              "internalType": "uint8",
              "name": "actualWinner",
              "type": "uint8"
            }
          ],
          "internalType": "struct PredictionMarket.Prediction",
          "name": "",
          "type": "tuple"
        }
      ],
      "stateMutability": "view",
      "type": "function"
    },
    {
      "inputs": [],
      "name": "predictionCount",
      "outputs": [
        {
          "internalType": "uint256",
          "name": "",
          "type": "uint256"
        }
      ],
      "stateMutability": "view",
      "type": "function"
    },
    {
      "inputs": [
        {
          "internalType": "uint256",
          "name": "",
          "type": "uint256"
        }
      ],
      "name": "predictions",
      "outputs": [
        {
          "internalType": "uint256",
          "name": "id",
          "type": "uint256"
        },
        {
          "internalType": "string",
          "name": "homeTeam",
          "type": "string"
        },
        {
          "internalType": "string",
          "name": "awayTeam",
          "type": "string"
        },
        {
          "internalType": "uint8",
          "name": "predictedWinner",
          "type": "uint8"
        },
        {
          "internalType": "uint8",
          "name": "confidence",
          "type": "uint8"
        },
        {
          "internalType": "uint256",
          "name": "timestamp",
          "type": "uint256"
        },
        {
          "internalType": "bool",
          "name": "resolved",
          "type": "bool"
        },
        {
          "internalType": "uint8",
          "name": "actualWinner",
          "type": "uint8"
        }
      ],
      "stateMutability": "view",
      "type": "function"
    },
    {
      "inputs": [
        {
          "internalType": "string",
          "name": "_home",
          "type": "string"
        },
        {
          "internalType": "string",
          "name": "_away",
          "type": "string"
        },
        {
          "internalType": "uint8",
          "name": "_winner",
          "type": "uint8"
        },
        {
          "internalType": "uint8",
          "name": "_confidence",
          "type": "uint8"
        }
      ],
      "name": "recordPrediction",
      "outputs": [
        {
          "internalType": "uint256",
          "name": "",
          "type": "uint256"
        }
      ],
      "stateMutability": "nonpayable",
      "type": "function"
    },
    {
      "inputs": [
        {
          "internalType": "uint256",
          "name": "_id",
          "type": "uint256"
        },
        {
          "internalType": "uint8",
          "name": "_actualWinner",
          "type": "uint8"
        }
      ],
      "name": "resolvePrediction",
      "outputs": [],
      "stateMutability": "nonpayable",
      "type": "function"
    }
  ],
  "bytecode": "0x608060405234801561001057600080fd5b50611a4f806100206000396000f3fe608060405234801561001057600080fd5b50600436106100875760003560e01c806392abadc51161005b57806392abadc51461012d578063bc1c72851461014b578063eca5266114610169578063fe83bece1461018757610087565b80624fbbb01461008c5780635647b271146100c35780636aaea6dc146100f35780638e0596a21461010f575b600080fd5b6100a660048036038101906100a19190610cb0565b6101b7565b6040516100ba989796959493929190610db3565b60405180910390f35b6100dd60048036038101906100d89190610fa0565b610343565b6040516100ea919061103f565b60405180910390f35b61010d6004803603810190610108919061105a565b610578565b005b61011761074f565b604051610124919061103f565b60405180910390f35b610135610755565b604051610142919061103f565b60405180910390f35b61015361078b565b604051610160919061128a565b60405180910390f35b6101716109f5565b60405161017e919061103f565b60405180910390f35b6101a1600480360381019061019c9190610cb0565b6109fb565b6040516101ae9190611363565b60405180910390f35b60006020528060005260406000206000915090508060000154908060010180546101e0906113b4565b80601f016020809104026020016040519081016040528092919081815260200182805461020c906113b4565b80156102595780601f1061022e57610100808354040283529160200191610259565b820191906000526020600020905b81548152906001019060200180831161023c57829003601f168201915b50505050509080600201805461026e906113b4565b80601f016020809104026020016040519081016040528092919081815260200182805461029a906113b4565b80156102e75780601f106102bc576101008083540402835291602001916102e7565b820191906000526020600020905b8154815290600101906020018083116102ca57829003601f168201915b5050505050908060030160009054906101000a900460ff16908060030160019054906101000a900460ff16908060040154908060050160009054906101000a900460ff16908060050160019054906101000a900460ff16905088565b600060028360ff16111561038c576040517f08c379a000000000000000000000000000000000000000000000000000000000815260040161038390611431565b60405180910390fd5b60328260ff16101580156103a4575060638260ff1611155b6103e3576040517f08c379a00000000000000000000000000000000000000000000000000000000081526004016103da9061149d565b60405180910390fd5b60405180610100016040528060015481526020018681526020018581526020018460ff1681526020018360ff168152602001428152602001600015158152602001600060ff16815250600080600154815260200190815260200160002060008201518160000155602082015181600101908161045f9190611669565b5060408201518160020190816104759190611669565b5060608201518160030160006101000a81548160ff021916908360ff16021790555060808201518160030160016101000a81548160ff021916908360ff16021790555060a0820151816004015560c08201518160050160006101000a81548160ff02191690831515021790555060e08201518160050160016101000a81548160ff021916908360ff1602179055509050506001547f8ae4e39201c79e4dbfef642bcba5f20b0e10a57b39bf8f7e361e278595e2d54a868686864260405161054095949392919061173b565b60405180910390a26001600081548092919061055b906117cb565b91905055506001805461056e9190611813565b9050949350505050565b60015482106105bc576040517f08c379a00000000000000000000000000000000000000000000000000000000081526004016105b390611893565b60405180910390fd5b60008083815260200190815260200160002060050160009054906101000a900460ff161561061f576040517f08c379a0000000000000000000000000000000000000000000000000000000008152600401610616906118ff565b60405180910390fd5b60028160ff161115610666576040517f08c379a000000000000000000000000000000000000000000000000000000000815260040161065d90611431565b60405180910390fd5b600160008084815260200190815260200160002060050160006101000a81548160ff0219169083151502179055508060008084815260200190815260200160002060050160016101000a81548160ff021916908360ff16021790555060008160ff1660008085815260200190815260200160002060030160009054906101000a900460ff1660ff161490508015610710576002600081548092919061070a906117cb565b91905055505b827f48c173ffa2262e5d5f066f7318da9e019de4cb75330c5a89cb60342f51a9f3e2838360405161074292919061191f565b60405180910390a2505050565b60015481565b600080600154036107695760009050610788565b600154606460025461077b9190611948565b61078591906119b9565b90505b90565b6060600060015467ffffffffffffffff8111156107ab576107aa610e49565b5b6040519080825280602002602001820160405280156107e457816020015b6107d1610c16565b8152602001906001900390816107c95790505b50905060005b6001548110156109ed57600080828152602001908152602001600020604051806101000160405290816000820154815260200160018201805461082c906113b4565b80601f0160208091040260200160405190810160405280929190818152602001828054610858906113b4565b80156108a55780601f1061087a576101008083540402835291602001916108a5565b820191906000526020600020905b81548152906001019060200180831161088857829003601f168201915b505050505081526020016002820180546108be906113b4565b80601f01602080910402602001604051908101604052809291908181526020018280546108ea906113b4565b80156109375780601f1061090c57610100808354040283529160200191610937565b820191906000526020600020905b81548152906001019060200180831161091a57829003601f168201915b505050505081526020016003820160009054906101000a900460ff1660ff1660ff1681526020016003820160019054906101000a900460ff1660ff1660ff168152602001600482015481526020016005820160009054906101000a900460ff161515151581526020016005820160019054906101000a900460ff1660ff1660ff16815250508282815181106109cf576109ce6119ea565b5b602002602001018190525080806109e5906117cb565b9150506107ea565b508091505090565b60025481565b610a03610c16565b6001548210610a47576040517f08c379a0000000000000000000000000000000000000000000000000000000008152600401610a3e90611893565b60405180910390fd5b6000808381526020019081526020016000206040518061010001604052908160008201548152602001600182018054610a7f906113b4565b80601f0160208091040260200160405190810160405280929190818152602001828054610aab906113b4565b8015610af85780601f10610acd57610100808354040283529160200191610af8565b820191906000526020600020905b815481529060010190602001808311610adb57829003601f168201915b50505050508152602001600282018054610b11906113b4565b80601f0160208091040260200160405190810160405280929190818152602001828054610b3d906113b4565b8015610b8a5780601f10610b5f57610100808354040283529160200191610b8a565b820191906000526020600020905b815481529060010190602001808311610b6d57829003601f168201915b505050505081526020016003820160009054906101000a900460ff1660ff1660ff1681526020016003820160019054906101000a900460ff1660ff1660ff168152602001600482015481526020016005820160009054906101000a900460ff161515151581526020016005820160019054906101000a900460ff1660ff1660ff16815250509050919050565b604051806101000160405280600081526020016060815260200160608152602001600060ff168152602001600060ff16815260200160008152602001600015158152602001600060ff1681525090565b6000604051905090565b600080fd5b600080fd5b6000819050919050565b610c8d81610c7a565b8114610c9857600080fd5b50565b600081359050610caa81610c84565b92915050565b600060208284031215610cc657610cc5610c70565b5b6000610cd484828501610c9b565b91505092915050565b610ce681610c7a565b82525050565b600081519050919050565b600082825260208201905092915050565b60005b83811015610d26578082015181840152602081019050610d0b565b60008484015250505050565b6000601f19601f8301169050919050565b6000610d4e82610cec565b610d588185610cf7565b9350610d68818560208601610d08565b610d7181610d32565b840191505092915050565b600060ff82169050919050565b610d9281610d7c565b82525050565b60008115159050919050565b610dad81610d98565b82525050565b600061010082019050610dc9600083018b610cdd565b8181036020830152610ddb818a610d43565b90508181036040830152610def8189610d43565b9050610dfe6060830188610d89565b610e0b6080830187610d89565b610e1860a0830186610cdd565b610e2560c0830185610da4565b610e3260e0830184610d89565b9998505050505050505050565b600080fd5b600080fd5b7f4e487b7100000000000000000000000000000000000000000000000000000000600052604160045260246000fd5b610e8182610d32565b810181811067ffffffffffffffff82111715610ea057610e9f610e49565b5b80604052505050565b6000610eb3610c66565b9050610ebf8282610e78565b919050565b600067ffffffffffffffff821115610edf57610ede610e49565b5b610ee882610d32565b9050602081019050919050565b82818337600083830152505050565b6000610f17610f1284610ec4565b610ea9565b905082815260208101848484011115610f3357610f32610e44565b5b610f3e848285610ef5565b509392505050565b600082601f830112610f5b57610f5a610e3f565b5b8135610f6b848260208601610f04565b91505092915050565b610f7d81610d7c565b8114610f8857600080fd5b50565b600081359050610f9a81610f74565b92915050565b60008060008060808587031215610fba57610fb9610c70565b5b600085013567ffffffffffffffff811115610fd857610fd7610c75565b5b610fe487828801610f46565b945050602085013567ffffffffffffffff81111561100557611004610c75565b5b61101187828801610f46565b935050604061102287828801610f8b565b925050606061103387828801610f8b565b91505092959194509250565b60006020820190506110546000830184610cdd565b92915050565b6000806040838503121561107157611070610c70565b5b600061107f85828601610c9b565b925050602061109085828601610f8b565b9150509250929050565b600081519050919050565b600082825260208201905092915050565b6000819050602082019050919050565b6110cf81610c7a565b82525050565b600082825260208201905092915050565b60006110f182610cec565b6110fb81856110d5565b935061110b818560208601610d08565b61111481610d32565b840191505092915050565b61112881610d7c565b82525050565b61113781610d98565b82525050565b60006101008301600083015161115660008601826110c6565b506020830151848203602086015261116e82826110e6565b9150506040830151848203604086015261118882826110e6565b915050606083015161119d606086018261111f565b5060808301516111b0608086018261111f565b5060a08301516111c360a08601826110c6565b5060c08301516111d660c086018261112e565b5060e08301516111e960e086018261111f565b508091505092915050565b6000611200838361113d565b905092915050565b6000602082019050919050565b60006112208261109a565b61122a81856110a5565b93508360208202850161123c856110b6565b8060005b85811015611278578484038952815161125985826111f4565b945061126483611208565b925060208a01995050600181019050611240565b50829750879550505050505092915050565b600060208201905081810360008301526112a48184611215565b905092915050565b6000610100830160008301516112c560008601826110c6565b50602083015184820360208601526112dd82826110e6565b915050604083015184820360408601526112f782826110e6565b915050606083015161130c606086018261111f565b50608083015161131f608086018261111f565b5060a083015161133260a08601826110c6565b5060c083015161134560c086018261112e565b5060e083015161135860e086018261111f565b508091505092915050565b6000602082019050818103600083015261137d81846112ac565b905092915050565b7f4e487b7100000000000000000000000000000000000000000000000000000000600052602260045260246000fd5b600060028204905060018216806113cc57607f821691505b6020821081036113df576113de611385565b5b50919050565b7f496e76616c69642077696e6e6572000000000000000000000000000000000000600082015250565b600061141b600e83610cf7565b9150611426826113e5565b602082019050919050565b6000602082019050818103600083015261144a8161140e565b9050919050565b7f436f6e666964656e6365206d7573742062652035302d39392500000000000000600082015250565b6000611487601983610cf7565b915061149282611451565b602082019050919050565b600060208201905081810360008301526114b68161147a565b9050919050565b60008190508160005260206000209050919050565b60006020601f8301049050919050565b600082821b905092915050565b60006008830261151f7fffffffffffffffffffffffffffffffffffffffffffffffffffffffffffffffff826114e2565b61152986836114e2565b95508019841693508086168417925050509392505050565b6000819050919050565b600061156661156161155c84610c7a565b611541565b610c7a565b9050919050565b6000819050919050565b6115808361154b565b61159461158c8261156d565b8484546114ef565b825550505050565b600090565b6115a961159c565b6115b4818484611577565b505050565b5b818110156115d8576115cd6000826115a1565b6001810190506115ba565b5050565b601f82111561161d576115ee816114bd565b6115f7846114d2565b81016020851015611606578190505b61161a611612856114d2565b8301826115b9565b50505b505050565b600082821c905092915050565b600061164060001984600802611622565b1980831691505092915050565b6000611659838361162f565b9150826002028217905092915050565b61167282610cec565b67ffffffffffffffff81111561168b5761168a610e49565b5b61169582546113b4565b6116a08282856115dc565b600060209050601f8311600181146116d357600084156116c1578287015190505b6116cb858261164d565b865550611733565b601f1984166116e1866114bd565b60005b82811015611709578489015182556001820191506020850194506020810190506116e4565b868310156117265784890151611722601f89168261162f565b8355505b6001600288020188555050505b505050505050565b600060a08201905081810360008301526117558188610d43565b905081810360208301526117698187610d43565b90506117786040830186610d89565b6117856060830185610d89565b6117926080830184610cdd565b9695505050505050565b7f4e487b7100000000000000000000000000000000000000000000000000000000600052601160045260246000fd5b60006117d682610c7a565b91507fffffffffffffffffffffffffffffffffffffffffffffffffffffffffffffffff82036118085761180761179c565b5b600182019050919050565b600061181e82610c7a565b915061182983610c7a565b92508282039050818111156118415761184061179c565b5b92915050565b7f50726564696374696f6e20646f65736e27742065786973740000000000000000600082015250565b600061187d601883610cf7565b915061188882611847565b602082019050919050565b600060208201905081810360008301526118ac81611870565b9050919050565b7f416c7265616479207265736f6c76656400000000000000000000000000000000600082015250565b60006118e9601083610cf7565b91506118f4826118b3565b602082019050919050565b60006020820190508181036000830152611918816118dc565b9050919050565b60006040820190506119346000830185610d89565b6119416020830184610da4565b9392505050565b600061195382610c7a565b915061195e83610c7a565b925082820261196c81610c7a565b915082820484148315176119835761198261179c565b5b5092915050565b7f4e487b7100000000000000000000000000000000000000000000000000000000600052601260045260246000fd5b60006119c482610c7a565b91506119cf83610c7a565b9250826119df576119de61198a565b5b828204905092915050565b7f4e487b7100000000000000000000000000000000000000000000000000000000600052603260045260246000fdfea2646970667358221220a3c2dc36c522b5a9746935b0173afc42989179e51410ea3af9d9d92784a2994064736f6c63430008140033",
  "linkReferences": {},
  "deployedLinkReferences": {}
}